{
  "_format": "hh-sol-artifact-1",
  "contractName": "Bank",
  "sourceName": "contracts/Bank.sol",
  "abi": [
    {
      "inputs": [],
      "stateMutability": "nonpayable",
      "type": "constructor"
    },
    {
      "inputs": [
        {
          "internalType": "address",
          "name": "",
          "type": "address"
        },
        {
          "internalType": "string",
          "name": "",
          "type": "string"
        }
      ],
      "name": "AccountDetails",
      "outputs": [
        {
          "internalType": "string",
          "name": "name",
          "type": "string"
        },
        {
          "internalType": "uint256",
          "name": "balance",
          "type": "uint256"
        },
        {
          "internalType": "address",
          "name": "owner",
          "type": "address"
        }
      ],
      "stateMutability": "view",
      "type": "function"
    },
    {
      "inputs": [
        {
          "internalType": "uint256",
          "name": "",
          "type": "uint256"
        }
      ],
      "name": "Accounts",
      "outputs": [
        {
          "internalType": "string",
          "name": "name",
          "type": "string"
        },
        {
          "internalType": "uint256",
          "name": "balance",
          "type": "uint256"
        },
        {
          "internalType": "address",
          "name": "owner",
          "type": "address"
        }
      ],
      "stateMutability": "view",
      "type": "function"
    },
    {
      "inputs": [],
      "name": "Usdt",
      "outputs": [
        {
          "internalType": "address",
          "name": "",
          "type": "address"
        }
      ],
      "stateMutability": "view",
      "type": "function"
    },
    {
      "inputs": [
        {
          "internalType": "address",
          "name": "",
          "type": "address"
        }
      ],
      "name": "accountwallet",
      "outputs": [
        {
          "internalType": "string",
          "name": "name",
          "type": "string"
        },
        {
          "internalType": "uint256",
          "name": "balance",
          "type": "uint256"
        },
        {
          "internalType": "address",
          "name": "owner",
          "type": "address"
        }
      ],
      "stateMutability": "view",
      "type": "function"
    },
    {
      "inputs": [
        {
          "internalType": "string",
          "name": "_accountname",
          "type": "string"
        }
      ],
      "name": "createnewaccount",
      "outputs": [],
      "stateMutability": "nonpayable",
      "type": "function"
    },
    {
      "inputs": [
        {
          "internalType": "string",
          "name": "_accountname",
          "type": "string"
        },
        {
          "internalType": "uint256",
          "name": "_amount",
          "type": "uint256"
        }
      ],
      "name": "depositeUsdt",
      "outputs": [],
      "stateMutability": "nonpayable",
      "type": "function"
    },
    {
      "inputs": [
        {
          "internalType": "address",
          "name": "UsdtAddress",
          "type": "address"
        }
      ],
      "name": "getAddress",
      "outputs": [],
      "stateMutability": "nonpayable",
      "type": "function"
    },
    {
      "inputs": [
        {
          "internalType": "string",
          "name": "_accountname",
          "type": "string"
        }
      ],
      "name": "getBalance",
      "outputs": [
        {
          "internalType": "uint256",
          "name": "",
          "type": "uint256"
        }
      ],
      "stateMutability": "view",
      "type": "function"
    },
    {
      "inputs": [],
      "name": "myAccounts",
      "outputs": [
        {
          "internalType": "string[]",
          "name": "",
          "type": "string[]"
        }
      ],
      "stateMutability": "view",
      "type": "function"
    },
    {
      "inputs": [
        {
          "internalType": "string",
          "name": "_accountfrom",
          "type": "string"
        },
        {
          "internalType": "string",
          "name": "_accountto",
          "type": "string"
        }
      ],
      "name": "transferAllUsdt",
      "outputs": [],
      "stateMutability": "nonpayable",
      "type": "function"
    },
    {
      "inputs": [
        {
          "internalType": "string",
          "name": "_accountfrom",
          "type": "string"
        },
        {
          "internalType": "string",
          "name": "_accountto",
          "type": "string"
        },
        {
          "internalType": "uint256",
          "name": "_amount",
          "type": "uint256"
        }
      ],
      "name": "transferUsdt",
      "outputs": [],
      "stateMutability": "nonpayable",
      "type": "function"
    },
    {
      "inputs": [
        {
          "internalType": "string",
          "name": "_accountname",
          "type": "string"
        }
      ],
      "name": "withdrawAllUsdt",
      "outputs": [],
      "stateMutability": "nonpayable",
      "type": "function"
    },
    {
      "inputs": [
        {
          "internalType": "uint256",
          "name": "_amount",
          "type": "uint256"
        },
        {
          "internalType": "string",
          "name": "_accountname",
          "type": "string"
        }
      ],
      "name": "withdrawUsdt",
      "outputs": [],
      "stateMutability": "nonpayable",
      "type": "function"
    }
  ],
  "bytecode": "0x608060405234801561001057600080fd5b50336000806101000a81548173ffffffffffffffffffffffffffffffffffffffff021916908373ffffffffffffffffffffffffffffffffffffffff160217905550611ee8806100606000396000f3fe608060405234801561001057600080fd5b50600436106100cf5760003560e01c806397b0176b1161008c578063b1e2199111610066578063b1e2199114610212578063b6dd59131461022e578063c4932b6a1461024c578063fce2ce7714610268576100cf565b806397b0176b146101a85780639e071b6d146101c4578063ae22c57d146101f6576100cf565b806316610229146100d45780633a51d246146100f05780633e89c723146101205780634c2def051461013e578063503454091461015a5780636c4414ff1461018c575b600080fd5b6100ee60048036038101906100e991906116cc565b61029a565b005b61010a600480360381019061010591906115a0565b6103c5565b6040516101179190611a99565b60405180910390f35b61012861042d565b60405161013591906119f9565b60405180910390f35b610158600480360381019061015391906115a0565b61069f565b005b610174600480360381019061016f9190611523565b61081a565b60405161018393929190611a1b565b60405180910390f35b6101a660048036038101906101a191906115a0565b61090f565b005b6101c260048036038101906101bd919061164d565b6109e5565b005b6101de60048036038101906101d991906114fa565b610cc0565b6040516101ed93929190611a1b565b60405180910390f35b610210600480360381019061020b91906114fa565b610d92565b005b61022c600480360381019061022791906115e1565b610e64565b005b6102366110de565b604051610243919061197e565b60405180910390f35b61026660048036038101906102619190611749565b611104565b005b610282600480360381019061027d9190611720565b6112ce565b60405161029193929190611a1b565b60405180910390f35b80600360003373ffffffffffffffffffffffffffffffffffffffff1673ffffffffffffffffffffffffffffffffffffffff168152602001908152602001600020836040516102e89190611967565b908152602001604051809103902060010160008282546103089190611b86565b92505081905550600160009054906101000a900473ffffffffffffffffffffffffffffffffffffffff1673ffffffffffffffffffffffffffffffffffffffff166323b872dd3330846040518463ffffffff1660e01b815260040161036e93929190611999565b602060405180830381600087803b15801561038857600080fd5b505af115801561039c573d6000803e3d6000fd5b505050506040513d601f19601f820116820180604052508101906103c09190611577565b505050565b6000600360003373ffffffffffffffffffffffffffffffffffffffff1673ffffffffffffffffffffffffffffffffffffffff168152602001908152602001600020826040516104149190611967565b9081526020016040518091039020600101549050919050565b6060600060028054905067ffffffffffffffff811115610476577f4e487b7100000000000000000000000000000000000000000000000000000000600052604160045260246000fd5b6040519080825280602002602001820160405280156104a957816020015b60608152602001906001900390816104945790505b5090506000805b600280549050811015610696573373ffffffffffffffffffffffffffffffffffffffff166002828154811061050e577f4e487b7100000000000000000000000000000000000000000000000000000000600052603260045260246000fd5b906000526020600020906003020160020160009054906101000a900473ffffffffffffffffffffffffffffffffffffffff1673ffffffffffffffffffffffffffffffffffffffff1614156106835760028181548110610596577f4e487b7100000000000000000000000000000000000000000000000000000000600052603260045260246000fd5b906000526020600020906003020160000180546105b290611d25565b80601f01602080910402602001604051908101604052809291908181526020018280546105de90611d25565b801561062b5780601f106106005761010080835404028352916020019161062b565b820191906000526020600020905b81548152906001019060200180831161060e57829003601f168201915b5050505050838381518110610669577f4e487b7100000000000000000000000000000000000000000000000000000000600052603260045260246000fd5b6020026020010181905250818061067f90611d57565b9250505b808061068e90611d57565b9150506104b0565b50819250505090565b6000600360003373ffffffffffffffffffffffffffffffffffffffff1673ffffffffffffffffffffffffffffffffffffffff168152602001908152602001600020826040516106ee9190611967565b90815260200160405180910390206001015490506000600360003373ffffffffffffffffffffffffffffffffffffffff1673ffffffffffffffffffffffffffffffffffffffff168152602001908152602001600020836040516107519190611967565b908152602001604051809103902060010181905550600160009054906101000a900473ffffffffffffffffffffffffffffffffffffffff1673ffffffffffffffffffffffffffffffffffffffff1663a9059cbb33836040518363ffffffff1660e01b81526004016107c39291906119d0565b602060405180830381600087803b1580156107dd57600080fd5b505af11580156107f1573d6000803e3d6000fd5b505050506040513d601f19601f820116820180604052508101906108159190611577565b505050565b6003602052816000526040600020818051602081018201805184825260208301602085012081835280955050505050506000915091505080600001805461086090611d25565b80601f016020809104026020016040519081016040528092919081815260200182805461088c90611d25565b80156108d95780601f106108ae576101008083540402835291602001916108d9565b820191906000526020600020905b8154815290600101906020018083116108bc57829003601f168201915b5050505050908060010154908060020160009054906101000a900473ffffffffffffffffffffffffffffffffffffffff16905083565b60006040518060600160405280838152602001600081526020013373ffffffffffffffffffffffffffffffffffffffff1681525090506002819080600181540180825580915050600190039060005260206000209060030201600090919091909150600082015181600001908051906020019061098d9291906113b0565b506020820151816001015560408201518160020160006101000a81548173ffffffffffffffffffffffffffffffffffffffff021916908373ffffffffffffffffffffffffffffffffffffffff16021790555050505050565b80600360003373ffffffffffffffffffffffffffffffffffffffff1673ffffffffffffffffffffffffffffffffffffffff16815260200190815260200160002084604051610a339190611967565b9081526020016040518091039020600101541015610a86576040517f08c379a0000000000000000000000000000000000000000000000000000000008152600401610a7d90611a79565b60405180910390fd5b80600360003373ffffffffffffffffffffffffffffffffffffffff1673ffffffffffffffffffffffffffffffffffffffff16815260200190815260200160002084604051610ad49190611967565b90815260200160405180910390206001016000828254610af49190611c67565b92505081905550600360003373ffffffffffffffffffffffffffffffffffffffff1673ffffffffffffffffffffffffffffffffffffffff16815260200190815260200160002082604051610b489190611967565b908152602001604051809103902060020160009054906101000a900473ffffffffffffffffffffffffffffffffffffffff1673ffffffffffffffffffffffffffffffffffffffff16600360003373ffffffffffffffffffffffffffffffffffffffff1673ffffffffffffffffffffffffffffffffffffffff16815260200190815260200160002084604051610bdd9190611967565b908152602001604051809103902060020160009054906101000a900473ffffffffffffffffffffffffffffffffffffffff1673ffffffffffffffffffffffffffffffffffffffff1614610c46576064606382610c399190611c0d565b610c439190611bdc565b90505b80600360003373ffffffffffffffffffffffffffffffffffffffff1673ffffffffffffffffffffffffffffffffffffffff16815260200190815260200160002083604051610c949190611967565b90815260200160405180910390206001016000828254610cb49190611b86565b92505081905550505050565b6004602052806000526040600020600091509050806000018054610ce390611d25565b80601f0160208091040260200160405190810160405280929190818152602001828054610d0f90611d25565b8015610d5c5780601f10610d3157610100808354040283529160200191610d5c565b820191906000526020600020905b815481529060010190602001808311610d3f57829003601f168201915b5050505050908060010154908060020160009054906101000a900473ffffffffffffffffffffffffffffffffffffffff16905083565b60008054906101000a900473ffffffffffffffffffffffffffffffffffffffff1673ffffffffffffffffffffffffffffffffffffffff163373ffffffffffffffffffffffffffffffffffffffff1614610e20576040517f08c379a0000000000000000000000000000000000000000000000000000000008152600401610e1790611a59565b60405180910390fd5b80600160006101000a81548173ffffffffffffffffffffffffffffffffffffffff021916908373ffffffffffffffffffffffffffffffffffffffff16021790555050565b6000600360003373ffffffffffffffffffffffffffffffffffffffff1673ffffffffffffffffffffffffffffffffffffffff16815260200190815260200160002083604051610eb39190611967565b90815260200160405180910390206001015490506000600360003373ffffffffffffffffffffffffffffffffffffffff1673ffffffffffffffffffffffffffffffffffffffff16815260200190815260200160002084604051610f169190611967565b908152602001604051809103902060010181905550600360003373ffffffffffffffffffffffffffffffffffffffff1673ffffffffffffffffffffffffffffffffffffffff16815260200190815260200160002082604051610f789190611967565b908152602001604051809103902060020160009054906101000a900473ffffffffffffffffffffffffffffffffffffffff1673ffffffffffffffffffffffffffffffffffffffff16600360003373ffffffffffffffffffffffffffffffffffffffff1673ffffffffffffffffffffffffffffffffffffffff1681526020019081526020016000208460405161100d9190611967565b908152602001604051809103902060020160009054906101000a900473ffffffffffffffffffffffffffffffffffffffff1673ffffffffffffffffffffffffffffffffffffffff16146110765760646063826110699190611c0d565b6110739190611bdc565b90505b80600360003373ffffffffffffffffffffffffffffffffffffffff1673ffffffffffffffffffffffffffffffffffffffff168152602001908152602001600020836040516110c49190611967565b908152602001604051809103902060010181905550505050565b600160009054906101000a900473ffffffffffffffffffffffffffffffffffffffff1681565b81600360003373ffffffffffffffffffffffffffffffffffffffff1673ffffffffffffffffffffffffffffffffffffffff168152602001908152602001600020826040516111529190611967565b90815260200160405180910390206001015410156111a5576040517f08c379a000000000000000000000000000000000000000000000000000000000815260040161119c90611a79565b60405180910390fd5b81600360003373ffffffffffffffffffffffffffffffffffffffff1673ffffffffffffffffffffffffffffffffffffffff168152602001908152602001600020826040516111f39190611967565b908152602001604051809103902060010160008282546112139190611c67565b92505081905550600160009054906101000a900473ffffffffffffffffffffffffffffffffffffffff1673ffffffffffffffffffffffffffffffffffffffff1663a9059cbb33846040518363ffffffff1660e01b81526004016112779291906119d0565b602060405180830381600087803b15801561129157600080fd5b505af11580156112a5573d6000803e3d6000fd5b505050506040513d601f19601f820116820180604052508101906112c99190611577565b505050565b600281815481106112de57600080fd5b906000526020600020906003020160009150905080600001805461130190611d25565b80601f016020809104026020016040519081016040528092919081815260200182805461132d90611d25565b801561137a5780601f1061134f5761010080835404028352916020019161137a565b820191906000526020600020905b81548152906001019060200180831161135d57829003601f168201915b5050505050908060010154908060020160009054906101000a900473ffffffffffffffffffffffffffffffffffffffff16905083565b8280546113bc90611d25565b90600052602060002090601f0160209004810192826113de5760008555611425565b82601f106113f757805160ff1916838001178555611425565b82800160010185558215611425579182015b82811115611424578251825591602001919060010190611409565b5b5090506114329190611436565b5090565b5b8082111561144f576000816000905550600101611437565b5090565b600061146661146184611ae5565b611ab4565b90508281526020810184848401111561147e57600080fd5b611489848285611ce3565b509392505050565b6000813590506114a081611e6d565b92915050565b6000815190506114b581611e84565b92915050565b600082601f8301126114cc57600080fd5b81356114dc848260208601611453565b91505092915050565b6000813590506114f481611e9b565b92915050565b60006020828403121561150c57600080fd5b600061151a84828501611491565b91505092915050565b6000806040838503121561153657600080fd5b600061154485828601611491565b925050602083013567ffffffffffffffff81111561156157600080fd5b61156d858286016114bb565b9150509250929050565b60006020828403121561158957600080fd5b6000611597848285016114a6565b91505092915050565b6000602082840312156115b257600080fd5b600082013567ffffffffffffffff8111156115cc57600080fd5b6115d8848285016114bb565b91505092915050565b600080604083850312156115f457600080fd5b600083013567ffffffffffffffff81111561160e57600080fd5b61161a858286016114bb565b925050602083013567ffffffffffffffff81111561163757600080fd5b611643858286016114bb565b9150509250929050565b60008060006060848603121561166257600080fd5b600084013567ffffffffffffffff81111561167c57600080fd5b611688868287016114bb565b935050602084013567ffffffffffffffff8111156116a557600080fd5b6116b1868287016114bb565b92505060406116c2868287016114e5565b9150509250925092565b600080604083850312156116df57600080fd5b600083013567ffffffffffffffff8111156116f957600080fd5b611705858286016114bb565b9250506020611716858286016114e5565b9150509250929050565b60006020828403121561173257600080fd5b6000611740848285016114e5565b91505092915050565b6000806040838503121561175c57600080fd5b600061176a858286016114e5565b925050602083013567ffffffffffffffff81111561178757600080fd5b611793858286016114bb565b9150509250929050565b60006117a98383611835565b905092915050565b6117ba81611c9b565b82525050565b60006117cb82611b25565b6117d58185611b48565b9350836020820285016117e785611b15565b8060005b858110156118235784840389528151611804858261179d565b945061180f83611b3b565b925060208a019950506001810190506117eb565b50829750879550505050505092915050565b600061184082611b30565b61184a8185611b59565b935061185a818560208601611cf2565b61186381611e5c565b840191505092915050565b600061187982611b30565b6118838185611b6a565b9350611893818560208601611cf2565b61189c81611e5c565b840191505092915050565b60006118b282611b30565b6118bc8185611b7b565b93506118cc818560208601611cf2565b80840191505092915050565b60006118e5600d83611b6a565b91507f4e6f205065726d697373696f6e000000000000000000000000000000000000006000830152602082019050919050565b6000611925601083611b6a565b91507f6e6f7420656e6f7567682066756e6473000000000000000000000000000000006000830152602082019050919050565b61196181611cd9565b82525050565b600061197382846118a7565b915081905092915050565b600060208201905061199360008301846117b1565b92915050565b60006060820190506119ae60008301866117b1565b6119bb60208301856117b1565b6119c86040830184611958565b949350505050565b60006040820190506119e560008301856117b1565b6119f26020830184611958565b9392505050565b60006020820190508181036000830152611a1381846117c0565b905092915050565b60006060820190508181036000830152611a35818661186e565b9050611a446020830185611958565b611a5160408301846117b1565b949350505050565b60006020820190508181036000830152611a72816118d8565b9050919050565b60006020820190508181036000830152611a9281611918565b9050919050565b6000602082019050611aae6000830184611958565b92915050565b6000604051905081810181811067ffffffffffffffff82111715611adb57611ada611e2d565b5b8060405250919050565b600067ffffffffffffffff821115611b0057611aff611e2d565b5b601f19601f8301169050602081019050919050565b6000819050602082019050919050565b600081519050919050565b600081519050919050565b6000602082019050919050565b600082825260208201905092915050565b600082825260208201905092915050565b600082825260208201905092915050565b600081905092915050565b6000611b9182611cd9565b9150611b9c83611cd9565b9250827fffffffffffffffffffffffffffffffffffffffffffffffffffffffffffffffff03821115611bd157611bd0611da0565b5b828201905092915050565b6000611be782611cd9565b9150611bf283611cd9565b925082611c0257611c01611dcf565b5b828204905092915050565b6000611c1882611cd9565b9150611c2383611cd9565b9250817fffffffffffffffffffffffffffffffffffffffffffffffffffffffffffffffff0483118215151615611c5c57611c5b611da0565b5b828202905092915050565b6000611c7282611cd9565b9150611c7d83611cd9565b925082821015611c9057611c8f611da0565b5b828203905092915050565b6000611ca682611cb9565b9050919050565b60008115159050919050565b600073ffffffffffffffffffffffffffffffffffffffff82169050919050565b6000819050919050565b82818337600083830152505050565b60005b83811015611d10578082015181840152602081019050611cf5565b83811115611d1f576000848401525b50505050565b60006002820490506001821680611d3d57607f821691505b60208210811415611d5157611d50611dfe565b5b50919050565b6000611d6282611cd9565b91507fffffffffffffffffffffffffffffffffffffffffffffffffffffffffffffffff821415611d9557611d94611da0565b5b600182019050919050565b7f4e487b7100000000000000000000000000000000000000000000000000000000600052601160045260246000fd5b7f4e487b7100000000000000000000000000000000000000000000000000000000600052601260045260246000fd5b7f4e487b7100000000000000000000000000000000000000000000000000000000600052602260045260246000fd5b7f4e487b7100000000000000000000000000000000000000000000000000000000600052604160045260246000fd5b6000601f19601f8301169050919050565b611e7681611c9b565b8114611e8157600080fd5b50565b611e8d81611cad565b8114611e9857600080fd5b50565b611ea481611cd9565b8114611eaf57600080fd5b5056fea26469706673582212204a8673ac70e25bcfa3adabb188ed2f8e121d731d6dcb836655a1283df1a135b664736f6c63430008000033",
  "linkReferences": {},
  "deployedLinkReferences": {}
}