{
  "_format": "hh-sol-artifact-1",
  "contractName": "Bank",
  "sourceName": "contracts/Bank.sol",
  "abi": [
    {
      "inputs": [],
      "stateMutability": "nonpayable",
      "type": "constructor"
    },
    {
      "anonymous": false,
      "inputs": [
        {
          "indexed": false,
          "internalType": "string",
          "name": "_Name",
          "type": "string"
        },
        {
          "indexed": false,
          "internalType": "address",
          "name": "owner",
          "type": "address"
        }
      ],
      "name": "showname",
      "type": "event"
    },
    {
      "inputs": [
        {
          "internalType": "uint256",
          "name": "",
          "type": "uint256"
        }
      ],
      "name": "Accounts",
      "outputs": [
        {
          "internalType": "string",
          "name": "name",
          "type": "string"
        },
        {
          "internalType": "uint256",
          "name": "balance",
          "type": "uint256"
        },
        {
          "internalType": "address",
          "name": "owner",
          "type": "address"
        }
      ],
      "stateMutability": "view",
      "type": "function"
    },
    {
      "inputs": [],
      "name": "Usdt",
      "outputs": [
        {
          "internalType": "address",
          "name": "",
          "type": "address"
        }
      ],
      "stateMutability": "view",
      "type": "function"
    },
    {
      "inputs": [
        {
          "internalType": "string",
          "name": "s1",
          "type": "string"
        },
        {
          "internalType": "string",
          "name": "s2",
          "type": "string"
        }
      ],
      "name": "compareStringsbyBytes",
      "outputs": [
        {
          "internalType": "bool",
          "name": "",
          "type": "bool"
        }
      ],
      "stateMutability": "pure",
      "type": "function"
    },
    {
      "inputs": [
        {
          "internalType": "string",
          "name": "_accountname",
          "type": "string"
        }
      ],
      "name": "createnewaccount",
      "outputs": [],
      "stateMutability": "nonpayable",
      "type": "function"
    },
    {
      "inputs": [
        {
          "internalType": "string",
          "name": "_accountname",
          "type": "string"
        },
        {
          "internalType": "uint256",
          "name": "_amount",
          "type": "uint256"
        }
      ],
      "name": "depositUsdt",
      "outputs": [],
      "stateMutability": "nonpayable",
      "type": "function"
    },
    {
      "inputs": [
        {
          "internalType": "string",
          "name": "_accountname",
          "type": "string"
        }
      ],
      "name": "getBalance",
      "outputs": [
        {
          "internalType": "uint256",
          "name": "",
          "type": "uint256"
        }
      ],
      "stateMutability": "view",
      "type": "function"
    },
    {
      "inputs": [
        {
          "internalType": "address",
          "name": "UsdtAddress",
          "type": "address"
        }
      ],
      "name": "getUsdtAddress",
      "outputs": [],
      "stateMutability": "nonpayable",
      "type": "function"
    },
    {
      "inputs": [
        {
          "internalType": "string",
          "name": "_accountfrom",
          "type": "string"
        },
        {
          "internalType": "string",
          "name": "_accountto",
          "type": "string"
        },
        {
          "internalType": "uint256",
          "name": "_amount",
          "type": "uint256"
        }
      ],
      "name": "transferUsdt",
      "outputs": [],
      "stateMutability": "nonpayable",
      "type": "function"
    },
    {
      "inputs": [],
      "name": "userAccounts",
      "outputs": [
        {
          "components": [
            {
              "internalType": "string",
              "name": "name",
              "type": "string"
            },
            {
              "internalType": "uint256",
              "name": "balance",
              "type": "uint256"
            },
            {
              "internalType": "address",
              "name": "owner",
              "type": "address"
            }
          ],
          "internalType": "struct Bank.BankAccont[]",
          "name": "",
          "type": "tuple[]"
        }
      ],
      "stateMutability": "view",
      "type": "function"
    },
    {
      "inputs": [],
      "name": "userAccountsdetails",
      "outputs": [
        {
          "components": [
            {
              "internalType": "string",
              "name": "name",
              "type": "string"
            },
            {
              "internalType": "uint256",
              "name": "balance",
              "type": "uint256"
            },
            {
              "internalType": "address",
              "name": "owner",
              "type": "address"
            }
          ],
          "internalType": "struct Bank.BankAccont[]",
          "name": "",
          "type": "tuple[]"
        }
      ],
      "stateMutability": "view",
      "type": "function"
    },
    {
      "inputs": [
        {
          "internalType": "uint256",
          "name": "_amount",
          "type": "uint256"
        },
        {
          "internalType": "string",
          "name": "_accountname",
          "type": "string"
        }
      ],
      "name": "withdrawUsdt",
      "outputs": [],
      "stateMutability": "nonpayable",
      "type": "function"
    }
  ],
  "bytecode": "0x608060405234801561001057600080fd5b50336000806101000a81548173ffffffffffffffffffffffffffffffffffffffff021916908373ffffffffffffffffffffffffffffffffffffffff1602179055506121d4806100606000396000f3fe608060405234801561001057600080fd5b50600436106100a95760003560e01c8063a2765e8911610071578063a2765e8914610150578063b6dd59131461016e578063c4932b6a1461018c578063cacf709f146101a8578063e9a734ff146101c4578063fce2ce77146101f4576100a9565b806305204e0e146100ae57806335229ae3146100cc5780633a51d246146100e85780636c4414ff1461011857806397b0176b14610134575b600080fd5b6100b6610226565b6040516100c39190611c9a565b60405180910390f35b6100e660048036038101906100e191906118f0565b61050f565b005b61010260048036038101906100fd91906117c4565b610737565b60405161010f9190611d85565b60405180910390f35b610132600480360381019061012d91906117c4565b610898565b005b61014e60048036038101906101499190611871565b6109ab565b005b610158610e21565b6040516101659190611c9a565b60405180910390f35b61017661110a565b6040516101839190611c1f565b60405180910390f35b6101a660048036038101906101a1919061196d565b611130565b005b6101c260048036038101906101bd9190611772565b6113e4565b005b6101de60048036038101906101d99190611805565b6114b6565b6040516101eb9190611cbc565b60405180910390f35b61020e60048036038101906102099190611944565b61150f565b60405161021d93929190611d07565b60405180910390f35b6060600060028054905067ffffffffffffffff81111561026f577f4e487b7100000000000000000000000000000000000000000000000000000000600052604160045260246000fd5b6040519080825280602002602001820160405280156102a857816020015b6102956115f1565b81526020019060019003908161028d5790505b5090506000805b600280549050811015610506573373ffffffffffffffffffffffffffffffffffffffff166002828154811061030d577f4e487b7100000000000000000000000000000000000000000000000000000000600052603260045260246000fd5b906000526020600020906003020160020160009054906101000a900473ffffffffffffffffffffffffffffffffffffffff1673ffffffffffffffffffffffffffffffffffffffff1614156104f35760028181548110610395577f4e487b7100000000000000000000000000000000000000000000000000000000600052603260045260246000fd5b90600052602060002090600302016040518060600160405290816000820180546103be90612011565b80601f01602080910402602001604051908101604052809291908181526020018280546103ea90612011565b80156104375780601f1061040c57610100808354040283529160200191610437565b820191906000526020600020905b81548152906001019060200180831161041a57829003601f168201915b50505050508152602001600182015481526020016002820160009054906101000a900473ffffffffffffffffffffffffffffffffffffffff1673ffffffffffffffffffffffffffffffffffffffff1673ffffffffffffffffffffffffffffffffffffffff16815250508383815181106104d9577f4e487b7100000000000000000000000000000000000000000000000000000000600052603260045260246000fd5b602002602001018190525081806104ef90612043565b9250505b80806104fe90612043565b9150506102af565b50819250505090565b600080600090505b60028054905081101561061d5761060160028281548110610561577f4e487b7100000000000000000000000000000000000000000000000000000000600052603260045260246000fd5b9060005260206000209060030201600001805461057d90612011565b80601f01602080910402602001604051908101604052809291908181526020018280546105a990612011565b80156105f65780601f106105cb576101008083540402835291602001916105f6565b820191906000526020600020905b8154815290600101906020018083116105d957829003601f168201915b5050505050856114b6565b1561060a578091505b808061061590612043565b915050610517565b508160028281548110610659577f4e487b7100000000000000000000000000000000000000000000000000000000600052603260045260246000fd5b906000526020600020906003020160010160008282546106799190611e72565b92505081905550600160009054906101000a900473ffffffffffffffffffffffffffffffffffffffff1673ffffffffffffffffffffffffffffffffffffffff166323b872dd3330856040518463ffffffff1660e01b81526004016106df93929190611c3a565b602060405180830381600087803b1580156106f957600080fd5b505af115801561070d573d6000803e3d6000fd5b505050506040513d601f19601f82011682018060405250810190610731919061179b565b50505050565b60008060005b60028054905081101561088e5761082760028281548110610787577f4e487b7100000000000000000000000000000000000000000000000000000000600052603260045260246000fd5b906000526020600020906003020160000180546107a390612011565b80601f01602080910402602001604051908101604052809291908181526020018280546107cf90612011565b801561081c5780601f106107f15761010080835404028352916020019161081c565b820191906000526020600020905b8154815290600101906020018083116107ff57829003601f168201915b5050505050856114b6565b1561087b5760028181548110610866577f4e487b7100000000000000000000000000000000000000000000000000000000600052603260045260246000fd5b90600052602060002090600302016001015491505b808061088690612043565b91505061073d565b5080915050919050565b60006040518060600160405280838152602001600181526020013373ffffffffffffffffffffffffffffffffffffffff16815250905060028190806001815401808255809150506001900390600052602060002090600302016000909190919091506000820151816000019080519060200190610916929190611628565b506020820151816001015560408201518160020160006101000a81548173ffffffffffffffffffffffffffffffffffffffff021916908373ffffffffffffffffffffffffffffffffffffffff16021790555050507f46c33accdd6d2d0bc5c2e5dfd20ca77dc47d2398f5d94e26bac6b37911d3c8c881600001513360405161099f929190611cd7565b60405180910390a15050565b60008060005b600280549050811015610ba257610a9b600282815481106109fb577f4e487b7100000000000000000000000000000000000000000000000000000000600052603260045260246000fd5b90600052602060002090600302016000018054610a1790612011565b80601f0160208091040260200160405190810160405280929190818152602001828054610a4390612011565b8015610a905780601f10610a6557610100808354040283529160200191610a90565b820191906000526020600020905b815481529060010190602001808311610a7357829003601f168201915b5050505050876114b6565b15610aa857809250610b8f565b610b8560028281548110610ae5577f4e487b7100000000000000000000000000000000000000000000000000000000600052603260045260246000fd5b90600052602060002090600302016000018054610b0190612011565b80601f0160208091040260200160405190810160405280929190818152602001828054610b2d90612011565b8015610b7a5780601f10610b4f57610100808354040283529160200191610b7a565b820191906000526020600020905b815481529060010190602001808311610b5d57829003601f168201915b5050505050866114b6565b15610b8e578091505b5b8080610b9a90612043565b9150506109b1565b508260028381548110610bde577f4e487b7100000000000000000000000000000000000000000000000000000000600052603260045260246000fd5b9060005260206000209060030201600101541015610c31576040517f08c379a0000000000000000000000000000000000000000000000000000000008152600401610c2890611d65565b60405180910390fd5b8260028381548110610c6c577f4e487b7100000000000000000000000000000000000000000000000000000000600052603260045260246000fd5b90600052602060002090600302016001016000828254610c8c9190611f53565b9250508190555060028181548110610ccd577f4e487b7100000000000000000000000000000000000000000000000000000000600052603260045260246000fd5b906000526020600020906003020160020160009054906101000a900473ffffffffffffffffffffffffffffffffffffffff1673ffffffffffffffffffffffffffffffffffffffff1660028381548110610d4f577f4e487b7100000000000000000000000000000000000000000000000000000000600052603260045260246000fd5b906000526020600020906003020160020160009054906101000a900473ffffffffffffffffffffffffffffffffffffffff1673ffffffffffffffffffffffffffffffffffffffff1614610db8576064606384610dab9190611ef9565b610db59190611ec8565b92505b8260028281548110610df3577f4e487b7100000000000000000000000000000000000000000000000000000000600052603260045260246000fd5b90600052602060002090600302016001016000828254610e139190611e72565b925050819055505050505050565b6060600060028054905067ffffffffffffffff811115610e6a577f4e487b7100000000000000000000000000000000000000000000000000000000600052604160045260246000fd5b604051908082528060200260200182016040528015610ea357816020015b610e906115f1565b815260200190600190039081610e885790505b5090506000805b600280549050811015611101573373ffffffffffffffffffffffffffffffffffffffff1660028281548110610f08577f4e487b7100000000000000000000000000000000000000000000000000000000600052603260045260246000fd5b906000526020600020906003020160020160009054906101000a900473ffffffffffffffffffffffffffffffffffffffff1673ffffffffffffffffffffffffffffffffffffffff1614156110ee5760028181548110610f90577f4e487b7100000000000000000000000000000000000000000000000000000000600052603260045260246000fd5b9060005260206000209060030201604051806060016040529081600082018054610fb990612011565b80601f0160208091040260200160405190810160405280929190818152602001828054610fe590612011565b80156110325780601f1061100757610100808354040283529160200191611032565b820191906000526020600020905b81548152906001019060200180831161101557829003601f168201915b50505050508152602001600182015481526020016002820160009054906101000a900473ffffffffffffffffffffffffffffffffffffffff1673ffffffffffffffffffffffffffffffffffffffff1673ffffffffffffffffffffffffffffffffffffffff16815250508383815181106110d4577f4e487b7100000000000000000000000000000000000000000000000000000000600052603260045260246000fd5b602002602001018190525081806110ea90612043565b9250505b80806110f990612043565b915050610eaa565b50819250505090565b600160009054906101000a900473ffffffffffffffffffffffffffffffffffffffff1681565b600080600090505b60028054905081101561123e5761122260028281548110611182577f4e487b7100000000000000000000000000000000000000000000000000000000600052603260045260246000fd5b9060005260206000209060030201600001805461119e90612011565b80601f01602080910402602001604051908101604052809291908181526020018280546111ca90612011565b80156112175780601f106111ec57610100808354040283529160200191611217565b820191906000526020600020905b8154815290600101906020018083116111fa57829003601f168201915b5050505050846114b6565b1561122b578091505b808061123690612043565b915050611138565b50826002828154811061127a577f4e487b7100000000000000000000000000000000000000000000000000000000600052603260045260246000fd5b90600052602060002090600302016001015410156112cd576040517f08c379a00000000000000000000000000000000000000000000000000000000081526004016112c490611d65565b60405180910390fd5b8260028281548110611308577f4e487b7100000000000000000000000000000000000000000000000000000000600052603260045260246000fd5b906000526020600020906003020160010160008282546113289190611f53565b92505081905550600160009054906101000a900473ffffffffffffffffffffffffffffffffffffffff1673ffffffffffffffffffffffffffffffffffffffff1663a9059cbb33856040518363ffffffff1660e01b815260040161138c929190611c71565b602060405180830381600087803b1580156113a657600080fd5b505af11580156113ba573d6000803e3d6000fd5b505050506040513d601f19601f820116820180604052508101906113de919061179b565b50505050565b60008054906101000a900473ffffffffffffffffffffffffffffffffffffffff1673ffffffffffffffffffffffffffffffffffffffff163373ffffffffffffffffffffffffffffffffffffffff1614611472576040517f08c379a000000000000000000000000000000000000000000000000000000000815260040161146990611d45565b60405180910390fd5b80600160006101000a81548173ffffffffffffffffffffffffffffffffffffffff021916908373ffffffffffffffffffffffffffffffffffffffff16021790555050565b6000816040516020016114c99190611c08565b60405160208183030381529060405280519060200120836040516020016114f09190611c08565b6040516020818303038152906040528051906020012014905092915050565b6002818154811061151f57600080fd5b906000526020600020906003020160009150905080600001805461154290612011565b80601f016020809104026020016040519081016040528092919081815260200182805461156e90612011565b80156115bb5780601f10611590576101008083540402835291602001916115bb565b820191906000526020600020905b81548152906001019060200180831161159e57829003601f168201915b5050505050908060010154908060020160009054906101000a900473ffffffffffffffffffffffffffffffffffffffff16905083565b60405180606001604052806060815260200160008152602001600073ffffffffffffffffffffffffffffffffffffffff1681525090565b82805461163490612011565b90600052602060002090601f016020900481019282611656576000855561169d565b82601f1061166f57805160ff191683800117855561169d565b8280016001018555821561169d579182015b8281111561169c578251825591602001919060010190611681565b5b5090506116aa91906116ae565b5090565b5b808211156116c75760008160009055506001016116af565b5090565b60006116de6116d984611dd1565b611da0565b9050828152602081018484840111156116f657600080fd5b611701848285611fcf565b509392505050565b60008135905061171881612159565b92915050565b60008151905061172d81612170565b92915050565b600082601f83011261174457600080fd5b81356117548482602086016116cb565b91505092915050565b60008135905061176c81612187565b92915050565b60006020828403121561178457600080fd5b600061179284828501611709565b91505092915050565b6000602082840312156117ad57600080fd5b60006117bb8482850161171e565b91505092915050565b6000602082840312156117d657600080fd5b600082013567ffffffffffffffff8111156117f057600080fd5b6117fc84828501611733565b91505092915050565b6000806040838503121561181857600080fd5b600083013567ffffffffffffffff81111561183257600080fd5b61183e85828601611733565b925050602083013567ffffffffffffffff81111561185b57600080fd5b61186785828601611733565b9150509250929050565b60008060006060848603121561188657600080fd5b600084013567ffffffffffffffff8111156118a057600080fd5b6118ac86828701611733565b935050602084013567ffffffffffffffff8111156118c957600080fd5b6118d586828701611733565b92505060406118e68682870161175d565b9150509250925092565b6000806040838503121561190357600080fd5b600083013567ffffffffffffffff81111561191d57600080fd5b61192985828601611733565b925050602061193a8582860161175d565b9150509250929050565b60006020828403121561195657600080fd5b60006119648482850161175d565b91505092915050565b6000806040838503121561198057600080fd5b600061198e8582860161175d565b925050602083013567ffffffffffffffff8111156119ab57600080fd5b6119b785828601611733565b9150509250929050565b60006119cd8383611b9a565b905092915050565b6119de81611f87565b82525050565b6119ed81611f87565b82525050565b60006119fe82611e11565b611a088185611e34565b935083602082028501611a1a85611e01565b8060005b85811015611a565784840389528151611a3785826119c1565b9450611a4283611e27565b925060208a01995050600181019050611a1e565b50829750879550505050505092915050565b611a7181611f99565b82525050565b6000611a8282611e1c565b611a8c8185611e45565b9350611a9c818560208601611fde565b611aa581612148565b840191505092915050565b6000611abb82611e1c565b611ac58185611e56565b9350611ad5818560208601611fde565b611ade81612148565b840191505092915050565b6000611af482611e1c565b611afe8185611e67565b9350611b0e818560208601611fde565b80840191505092915050565b6000611b27600d83611e56565b91507f4e6f205065726d697373696f6e000000000000000000000000000000000000006000830152602082019050919050565b6000611b67601083611e56565b91507f6e6f7420656e6f7567682066756e6473000000000000000000000000000000006000830152602082019050919050565b60006060830160008301518482036000860152611bb78282611a77565b9150506020830151611bcc6020860182611bea565b506040830151611bdf60408601826119d5565b508091505092915050565b611bf381611fc5565b82525050565b611c0281611fc5565b82525050565b6000611c148284611ae9565b915081905092915050565b6000602082019050611c3460008301846119e4565b92915050565b6000606082019050611c4f60008301866119e4565b611c5c60208301856119e4565b611c696040830184611bf9565b949350505050565b6000604082019050611c8660008301856119e4565b611c936020830184611bf9565b9392505050565b60006020820190508181036000830152611cb481846119f3565b905092915050565b6000602082019050611cd16000830184611a68565b92915050565b60006040820190508181036000830152611cf18185611ab0565b9050611d0060208301846119e4565b9392505050565b60006060820190508181036000830152611d218186611ab0565b9050611d306020830185611bf9565b611d3d60408301846119e4565b949350505050565b60006020820190508181036000830152611d5e81611b1a565b9050919050565b60006020820190508181036000830152611d7e81611b5a565b9050919050565b6000602082019050611d9a6000830184611bf9565b92915050565b6000604051905081810181811067ffffffffffffffff82111715611dc757611dc6612119565b5b8060405250919050565b600067ffffffffffffffff821115611dec57611deb612119565b5b601f19601f8301169050602081019050919050565b6000819050602082019050919050565b600081519050919050565b600081519050919050565b6000602082019050919050565b600082825260208201905092915050565b600082825260208201905092915050565b600082825260208201905092915050565b600081905092915050565b6000611e7d82611fc5565b9150611e8883611fc5565b9250827fffffffffffffffffffffffffffffffffffffffffffffffffffffffffffffffff03821115611ebd57611ebc61208c565b5b828201905092915050565b6000611ed382611fc5565b9150611ede83611fc5565b925082611eee57611eed6120bb565b5b828204905092915050565b6000611f0482611fc5565b9150611f0f83611fc5565b9250817fffffffffffffffffffffffffffffffffffffffffffffffffffffffffffffffff0483118215151615611f4857611f4761208c565b5b828202905092915050565b6000611f5e82611fc5565b9150611f6983611fc5565b925082821015611f7c57611f7b61208c565b5b828203905092915050565b6000611f9282611fa5565b9050919050565b60008115159050919050565b600073ffffffffffffffffffffffffffffffffffffffff82169050919050565b6000819050919050565b82818337600083830152505050565b60005b83811015611ffc578082015181840152602081019050611fe1565b8381111561200b576000848401525b50505050565b6000600282049050600182168061202957607f821691505b6020821081141561203d5761203c6120ea565b5b50919050565b600061204e82611fc5565b91507fffffffffffffffffffffffffffffffffffffffffffffffffffffffffffffffff8214156120815761208061208c565b5b600182019050919050565b7f4e487b7100000000000000000000000000000000000000000000000000000000600052601160045260246000fd5b7f4e487b7100000000000000000000000000000000000000000000000000000000600052601260045260246000fd5b7f4e487b7100000000000000000000000000000000000000000000000000000000600052602260045260246000fd5b7f4e487b7100000000000000000000000000000000000000000000000000000000600052604160045260246000fd5b6000601f19601f8301169050919050565b61216281611f87565b811461216d57600080fd5b50565b61217981611f99565b811461218457600080fd5b50565b61219081611fc5565b811461219b57600080fd5b5056fea264697066735822122020eec37382fc6d814b1289d4e7e87b541356fc902eb5b54d4fa70436d804371a64736f6c63430008000033",
  "linkReferences": {},
  "deployedLinkReferences": {}
}