{
  "_format": "hh-sol-artifact-1",
  "contractName": "Bank",
  "sourceName": "contracts/Bank.sol",
  "abi": [
    {
      "inputs": [],
      "stateMutability": "nonpayable",
      "type": "constructor"
    },
    {
      "anonymous": false,
      "inputs": [
        {
          "indexed": false,
          "internalType": "string",
          "name": "_Name",
          "type": "string"
        },
        {
          "indexed": false,
          "internalType": "address",
          "name": "owner",
          "type": "address"
        }
      ],
      "name": "showname",
      "type": "event"
    },
    {
      "inputs": [
        {
          "internalType": "uint256",
          "name": "",
          "type": "uint256"
        }
      ],
      "name": "Accounts",
      "outputs": [
        {
          "internalType": "string",
          "name": "name",
          "type": "string"
        },
        {
          "internalType": "uint256",
          "name": "balance",
          "type": "uint256"
        },
        {
          "internalType": "address",
          "name": "owner",
          "type": "address"
        }
      ],
      "stateMutability": "view",
      "type": "function"
    },
    {
      "inputs": [],
      "name": "Usdt",
      "outputs": [
        {
          "internalType": "address",
          "name": "",
          "type": "address"
        }
      ],
      "stateMutability": "view",
      "type": "function"
    },
    {
      "inputs": [],
      "name": "UsdtAddress",
      "outputs": [
        {
          "internalType": "address",
          "name": "",
          "type": "address"
        }
      ],
      "stateMutability": "view",
      "type": "function"
    },
    {
      "inputs": [
        {
          "internalType": "string",
          "name": "s1",
          "type": "string"
        },
        {
          "internalType": "string",
          "name": "s2",
          "type": "string"
        }
      ],
      "name": "compareStringsbyBytes",
      "outputs": [
        {
          "internalType": "bool",
          "name": "",
          "type": "bool"
        }
      ],
      "stateMutability": "pure",
      "type": "function"
    },
    {
      "inputs": [
        {
          "internalType": "string",
          "name": "_accountname",
          "type": "string"
        }
      ],
      "name": "createnewaccount",
      "outputs": [],
      "stateMutability": "nonpayable",
      "type": "function"
    },
    {
      "inputs": [
        {
          "internalType": "string",
          "name": "_accountname",
          "type": "string"
        },
        {
          "internalType": "uint256",
          "name": "_amount",
          "type": "uint256"
        }
      ],
      "name": "depositUsdt",
      "outputs": [],
      "stateMutability": "nonpayable",
      "type": "function"
    },
    {
      "inputs": [
        {
          "internalType": "address",
          "name": "_UsdtAddress",
          "type": "address"
        }
      ],
      "name": "getUsdtAddress",
      "outputs": [],
      "stateMutability": "nonpayable",
      "type": "function"
    },
    {
      "inputs": [
        {
          "internalType": "string",
          "name": "_from",
          "type": "string"
        },
        {
          "internalType": "string[]",
          "name": "listto",
          "type": "string[]"
        },
        {
          "internalType": "uint256",
          "name": "eachamount",
          "type": "uint256"
        }
      ],
      "name": "listtransfer",
      "outputs": [],
      "stateMutability": "nonpayable",
      "type": "function"
    },
    {
      "inputs": [
        {
          "internalType": "string",
          "name": "_accountfrom",
          "type": "string"
        },
        {
          "internalType": "string",
          "name": "_accountto",
          "type": "string"
        },
        {
          "internalType": "uint256",
          "name": "_amount",
          "type": "uint256"
        }
      ],
      "name": "transferUsdt",
      "outputs": [],
      "stateMutability": "nonpayable",
      "type": "function"
    },
    {
      "inputs": [],
      "name": "userAccounts",
      "outputs": [
        {
          "components": [
            {
              "internalType": "string",
              "name": "name",
              "type": "string"
            },
            {
              "internalType": "uint256",
              "name": "balance",
              "type": "uint256"
            },
            {
              "internalType": "address",
              "name": "owner",
              "type": "address"
            }
          ],
          "internalType": "struct Bank.BankAccont[]",
          "name": "",
          "type": "tuple[]"
        }
      ],
      "stateMutability": "view",
      "type": "function"
    },
    {
      "inputs": [
        {
          "internalType": "uint256",
          "name": "_amount",
          "type": "uint256"
        },
        {
          "internalType": "string",
          "name": "_accountname",
          "type": "string"
        }
      ],
      "name": "withdrawUsdt",
      "outputs": [],
      "stateMutability": "nonpayable",
      "type": "function"
    }
  ],
  "bytecode": "0x608060405234801561001057600080fd5b50336000806101000a81548173ffffffffffffffffffffffffffffffffffffffff021916908373ffffffffffffffffffffffffffffffffffffffff1602179055506122a0806100606000396000f3fe608060405234801561001057600080fd5b50600436106100a95760003560e01c806397b0176b1161007157806397b0176b1461013e578063b6dd59131461015a578063c4932b6a14610178578063cacf709f14610194578063e9a734ff146101b0578063fce2ce77146101e0576100a9565b806305204e0e146100ae5780632ffa0e16146100cc57806335229ae3146100e857806361f62302146101045780636c4414ff14610122575b600080fd5b6100b6610212565b6040516100c39190611d15565b60405180910390f35b6100e660048036038101906100e19190611781565b61061e565b005b61010260048036038101906100fd91906118eb565b61068e565b005b61010c6108b6565b6040516101199190611c9a565b60405180910390f35b61013c60048036038101906101379190611740565b6108e0565b005b6101586004803603810190610153919061186c565b610b33565b005b610162610fff565b60405161016f9190611c9a565b60405180910390f35b610192600480360381019061018d9190611968565b611025565b005b6101ae60048036038101906101a991906116ee565b6112d9565b005b6101ca60048036038101906101c59190611800565b6113ab565b6040516101d79190611d37565b60405180910390f35b6101fa60048036038101906101f5919061193f565b611404565b60405161020993929190611d82565b60405180910390f35b6060600060028054905067ffffffffffffffff81111561025b577f4e487b7100000000000000000000000000000000000000000000000000000000600052604160045260246000fd5b60405190808252806020026020018201604052801561029457816020015b6102816114e6565b8152602001906001900390816102795790505b5090506000805b6002805490508110156104f2573373ffffffffffffffffffffffffffffffffffffffff16600282815481106102f9577f4e487b7100000000000000000000000000000000000000000000000000000000600052603260045260246000fd5b906000526020600020906003020160020160009054906101000a900473ffffffffffffffffffffffffffffffffffffffff1673ffffffffffffffffffffffffffffffffffffffff1614156104df5760028181548110610381577f4e487b7100000000000000000000000000000000000000000000000000000000600052603260045260246000fd5b90600052602060002090600302016040518060600160405290816000820180546103aa906120dd565b80601f01602080910402602001604051908101604052809291908181526020018280546103d6906120dd565b80156104235780601f106103f857610100808354040283529160200191610423565b820191906000526020600020905b81548152906001019060200180831161040657829003601f168201915b50505050508152602001600182015481526020016002820160009054906101000a900473ffffffffffffffffffffffffffffffffffffffff1673ffffffffffffffffffffffffffffffffffffffff1673ffffffffffffffffffffffffffffffffffffffff16815250508383815181106104c5577f4e487b7100000000000000000000000000000000000000000000000000000000600052603260045260246000fd5b602002602001018190525081806104db9061210f565b9250505b80806104ea9061210f565b91505061029b565b5060008167ffffffffffffffff811115610535577f4e487b7100000000000000000000000000000000000000000000000000000000600052604160045260246000fd5b60405190808252806020026020018201604052801561056e57816020015b61055b6114e6565b8152602001906001900390816105535790505b50905060005b82811015610614578381815181106105b5577f4e487b7100000000000000000000000000000000000000000000000000000000600052603260045260246000fd5b60200260200101518282815181106105f6577f4e487b7100000000000000000000000000000000000000000000000000000000600052603260045260246000fd5b6020026020010181905250808061060c9061210f565b915050610574565b5080935050505090565b60005b82518110156106885761067584848381518110610667577f4e487b7100000000000000000000000000000000000000000000000000000000600052603260045260246000fd5b602002602001015184610b33565b80806106809061210f565b915050610621565b50505050565b600080600090505b60028054905081101561079c57610780600282815481106106e0577f4e487b7100000000000000000000000000000000000000000000000000000000600052603260045260246000fd5b906000526020600020906003020160000180546106fc906120dd565b80601f0160208091040260200160405190810160405280929190818152602001828054610728906120dd565b80156107755780601f1061074a57610100808354040283529160200191610775565b820191906000526020600020905b81548152906001019060200180831161075857829003601f168201915b5050505050856113ab565b15610789578091505b80806107949061210f565b915050610696565b5081600282815481106107d8577f4e487b7100000000000000000000000000000000000000000000000000000000600052603260045260246000fd5b906000526020600020906003020160010160008282546107f89190611f3e565b92505081905550600160009054906101000a900473ffffffffffffffffffffffffffffffffffffffff1673ffffffffffffffffffffffffffffffffffffffff166323b872dd3330856040518463ffffffff1660e01b815260040161085e93929190611cb5565b602060405180830381600087803b15801561087857600080fd5b505af115801561088c573d6000803e3d6000fd5b505050506040513d601f19601f820116820180604052508101906108b09190611717565b50505050565b6000600160009054906101000a900473ffffffffffffffffffffffffffffffffffffffff16905090565b60005b600280549050811015610a1f576109cd6002828154811061092d577f4e487b7100000000000000000000000000000000000000000000000000000000600052603260045260246000fd5b90600052602060002090600302016000018054610949906120dd565b80601f0160208091040260200160405190810160405280929190818152602001828054610975906120dd565b80156109c25780601f10610997576101008083540402835291602001916109c2565b820191906000526020600020905b8154815290600101906020018083116109a557829003601f168201915b5050505050836113ab565b610a0c576040517f08c379a0000000000000000000000000000000000000000000000000000000008152600401610a0390611de0565b60405180910390fd5b8080610a179061210f565b9150506108e3565b5060006040518060600160405280838152602001600081526020013373ffffffffffffffffffffffffffffffffffffffff16815250905060028190806001815401808255809150506001900390600052602060002090600302016000909190919091506000820151816000019080519060200190610a9e92919061151d565b506020820151816001015560408201518160020160006101000a81548173ffffffffffffffffffffffffffffffffffffffff021916908373ffffffffffffffffffffffffffffffffffffffff16021790555050507f46c33accdd6d2d0bc5c2e5dfd20ca77dc47d2398f5d94e26bac6b37911d3c8c8816000015133604051610b27929190611d52565b60405180910390a15050565b60008067016345785d8a0000905060005b600280549050811015610d3557610c2e60028281548110610b8e577f4e487b7100000000000000000000000000000000000000000000000000000000600052603260045260246000fd5b90600052602060002090600302016000018054610baa906120dd565b80601f0160208091040260200160405190810160405280929190818152602001828054610bd6906120dd565b8015610c235780601f10610bf857610100808354040283529160200191610c23565b820191906000526020600020905b815481529060010190602001808311610c0657829003601f168201915b5050505050876113ab565b15610c3b57809250610d22565b610d1860028281548110610c78577f4e487b7100000000000000000000000000000000000000000000000000000000600052603260045260246000fd5b90600052602060002090600302016000018054610c94906120dd565b80601f0160208091040260200160405190810160405280929190818152602001828054610cc0906120dd565b8015610d0d5780601f10610ce257610100808354040283529160200191610d0d565b820191906000526020600020905b815481529060010190602001808311610cf057829003601f168201915b5050505050866113ab565b15610d21578091505b5b8080610d2d9061210f565b915050610b44565b5067016345785d8a0000811415610d81576040517f08c379a0000000000000000000000000000000000000000000000000000000008152600401610d7890611e00565b60405180910390fd5b8260028381548110610dbc577f4e487b7100000000000000000000000000000000000000000000000000000000600052603260045260246000fd5b9060005260206000209060030201600101541015610e0f576040517f08c379a0000000000000000000000000000000000000000000000000000000008152600401610e0690611e20565b60405180910390fd5b8260028381548110610e4a577f4e487b7100000000000000000000000000000000000000000000000000000000600052603260045260246000fd5b90600052602060002090600302016001016000828254610e6a919061201f565b9250508190555060028181548110610eab577f4e487b7100000000000000000000000000000000000000000000000000000000600052603260045260246000fd5b906000526020600020906003020160020160009054906101000a900473ffffffffffffffffffffffffffffffffffffffff1673ffffffffffffffffffffffffffffffffffffffff1660028381548110610f2d577f4e487b7100000000000000000000000000000000000000000000000000000000600052603260045260246000fd5b906000526020600020906003020160020160009054906101000a900473ffffffffffffffffffffffffffffffffffffffff1673ffffffffffffffffffffffffffffffffffffffff1614610f96576064606384610f899190611fc5565b610f939190611f94565b92505b8260028281548110610fd1577f4e487b7100000000000000000000000000000000000000000000000000000000600052603260045260246000fd5b90600052602060002090600302016001016000828254610ff19190611f3e565b925050819055505050505050565b600160009054906101000a900473ffffffffffffffffffffffffffffffffffffffff1681565b600080600090505b6002805490508110156111335761111760028281548110611077577f4e487b7100000000000000000000000000000000000000000000000000000000600052603260045260246000fd5b90600052602060002090600302016000018054611093906120dd565b80601f01602080910402602001604051908101604052809291908181526020018280546110bf906120dd565b801561110c5780601f106110e15761010080835404028352916020019161110c565b820191906000526020600020905b8154815290600101906020018083116110ef57829003601f168201915b5050505050846113ab565b15611120578091505b808061112b9061210f565b91505061102d565b50826002828154811061116f577f4e487b7100000000000000000000000000000000000000000000000000000000600052603260045260246000fd5b90600052602060002090600302016001015410156111c2576040517f08c379a00000000000000000000000000000000000000000000000000000000081526004016111b990611e20565b60405180910390fd5b82600282815481106111fd577f4e487b7100000000000000000000000000000000000000000000000000000000600052603260045260246000fd5b9060005260206000209060030201600101600082825461121d919061201f565b92505081905550600160009054906101000a900473ffffffffffffffffffffffffffffffffffffffff1673ffffffffffffffffffffffffffffffffffffffff1663a9059cbb33856040518363ffffffff1660e01b8152600401611281929190611cec565b602060405180830381600087803b15801561129b57600080fd5b505af11580156112af573d6000803e3d6000fd5b505050506040513d601f19601f820116820180604052508101906112d39190611717565b50505050565b60008054906101000a900473ffffffffffffffffffffffffffffffffffffffff1673ffffffffffffffffffffffffffffffffffffffff163373ffffffffffffffffffffffffffffffffffffffff1614611367576040517f08c379a000000000000000000000000000000000000000000000000000000000815260040161135e90611dc0565b60405180910390fd5b80600160006101000a81548173ffffffffffffffffffffffffffffffffffffffff021916908373ffffffffffffffffffffffffffffffffffffffff16021790555050565b6000816040516020016113be9190611c83565b60405160208183030381529060405280519060200120836040516020016113e59190611c83565b6040516020818303038152906040528051906020012014905092915050565b6002818154811061141457600080fd5b9060005260206000209060030201600091509050806000018054611437906120dd565b80601f0160208091040260200160405190810160405280929190818152602001828054611463906120dd565b80156114b05780601f10611485576101008083540402835291602001916114b0565b820191906000526020600020905b81548152906001019060200180831161149357829003601f168201915b5050505050908060010154908060020160009054906101000a900473ffffffffffffffffffffffffffffffffffffffff16905083565b60405180606001604052806060815260200160008152602001600073ffffffffffffffffffffffffffffffffffffffff1681525090565b828054611529906120dd565b90600052602060002090601f01602090048101928261154b5760008555611592565b82601f1061156457805160ff1916838001178555611592565b82800160010185558215611592579182015b82811115611591578251825591602001919060010190611576565b5b50905061159f91906115a3565b5090565b5b808211156115bc5760008160009055506001016115a4565b5090565b60006115d36115ce84611e71565b611e40565b9050808382526020820190508260005b8581101561161357813585016115f988826116af565b8452602084019350602083019250506001810190506115e3565b5050509392505050565b600061163061162b84611e9d565b611e40565b90508281526020810184848401111561164857600080fd5b61165384828561209b565b509392505050565b60008135905061166a81612225565b92915050565b600082601f83011261168157600080fd5b81356116918482602086016115c0565b91505092915050565b6000815190506116a98161223c565b92915050565b600082601f8301126116c057600080fd5b81356116d084826020860161161d565b91505092915050565b6000813590506116e881612253565b92915050565b60006020828403121561170057600080fd5b600061170e8482850161165b565b91505092915050565b60006020828403121561172957600080fd5b60006117378482850161169a565b91505092915050565b60006020828403121561175257600080fd5b600082013567ffffffffffffffff81111561176c57600080fd5b611778848285016116af565b91505092915050565b60008060006060848603121561179657600080fd5b600084013567ffffffffffffffff8111156117b057600080fd5b6117bc868287016116af565b935050602084013567ffffffffffffffff8111156117d957600080fd5b6117e586828701611670565b92505060406117f6868287016116d9565b9150509250925092565b6000806040838503121561181357600080fd5b600083013567ffffffffffffffff81111561182d57600080fd5b611839858286016116af565b925050602083013567ffffffffffffffff81111561185657600080fd5b611862858286016116af565b9150509250929050565b60008060006060848603121561188157600080fd5b600084013567ffffffffffffffff81111561189b57600080fd5b6118a7868287016116af565b935050602084013567ffffffffffffffff8111156118c457600080fd5b6118d0868287016116af565b92505060406118e1868287016116d9565b9150509250925092565b600080604083850312156118fe57600080fd5b600083013567ffffffffffffffff81111561191857600080fd5b611924858286016116af565b9250506020611935858286016116d9565b9150509250929050565b60006020828403121561195157600080fd5b600061195f848285016116d9565b91505092915050565b6000806040838503121561197b57600080fd5b6000611989858286016116d9565b925050602083013567ffffffffffffffff8111156119a657600080fd5b6119b2858286016116af565b9150509250929050565b60006119c88383611c15565b905092915050565b6119d981612053565b82525050565b6119e881612053565b82525050565b60006119f982611edd565b611a038185611f00565b935083602082028501611a1585611ecd565b8060005b85811015611a515784840389528151611a3285826119bc565b9450611a3d83611ef3565b925060208a01995050600181019050611a19565b50829750879550505050505092915050565b611a6c81612065565b82525050565b6000611a7d82611ee8565b611a878185611f11565b9350611a978185602086016120aa565b611aa081612214565b840191505092915050565b6000611ab682611ee8565b611ac08185611f22565b9350611ad08185602086016120aa565b611ad981612214565b840191505092915050565b6000611aef82611ee8565b611af98185611f33565b9350611b098185602086016120aa565b80840191505092915050565b6000611b22600d83611f22565b91507f4e6f205065726d697373696f6e000000000000000000000000000000000000006000830152602082019050919050565b6000611b62601a83611f22565b91507f6163636f756e74206e616d6520686164206265656e20757365640000000000006000830152602082019050919050565b6000611ba2601183611f22565b91507f6163636f756e74206e6f742065786973740000000000000000000000000000006000830152602082019050919050565b6000611be2601083611f22565b91507f6e6f7420656e6f7567682066756e6473000000000000000000000000000000006000830152602082019050919050565b60006060830160008301518482036000860152611c328282611a72565b9150506020830151611c476020860182611c65565b506040830151611c5a60408601826119d0565b508091505092915050565b611c6e81612091565b82525050565b611c7d81612091565b82525050565b6000611c8f8284611ae4565b915081905092915050565b6000602082019050611caf60008301846119df565b92915050565b6000606082019050611cca60008301866119df565b611cd760208301856119df565b611ce46040830184611c74565b949350505050565b6000604082019050611d0160008301856119df565b611d0e6020830184611c74565b9392505050565b60006020820190508181036000830152611d2f81846119ee565b905092915050565b6000602082019050611d4c6000830184611a63565b92915050565b60006040820190508181036000830152611d6c8185611aab565b9050611d7b60208301846119df565b9392505050565b60006060820190508181036000830152611d9c8186611aab565b9050611dab6020830185611c74565b611db860408301846119df565b949350505050565b60006020820190508181036000830152611dd981611b15565b9050919050565b60006020820190508181036000830152611df981611b55565b9050919050565b60006020820190508181036000830152611e1981611b95565b9050919050565b60006020820190508181036000830152611e3981611bd5565b9050919050565b6000604051905081810181811067ffffffffffffffff82111715611e6757611e666121e5565b5b8060405250919050565b600067ffffffffffffffff821115611e8c57611e8b6121e5565b5b602082029050602081019050919050565b600067ffffffffffffffff821115611eb857611eb76121e5565b5b601f19601f8301169050602081019050919050565b6000819050602082019050919050565b600081519050919050565b600081519050919050565b6000602082019050919050565b600082825260208201905092915050565b600082825260208201905092915050565b600082825260208201905092915050565b600081905092915050565b6000611f4982612091565b9150611f5483612091565b9250827fffffffffffffffffffffffffffffffffffffffffffffffffffffffffffffffff03821115611f8957611f88612158565b5b828201905092915050565b6000611f9f82612091565b9150611faa83612091565b925082611fba57611fb9612187565b5b828204905092915050565b6000611fd082612091565b9150611fdb83612091565b9250817fffffffffffffffffffffffffffffffffffffffffffffffffffffffffffffffff048311821515161561201457612013612158565b5b828202905092915050565b600061202a82612091565b915061203583612091565b92508282101561204857612047612158565b5b828203905092915050565b600061205e82612071565b9050919050565b60008115159050919050565b600073ffffffffffffffffffffffffffffffffffffffff82169050919050565b6000819050919050565b82818337600083830152505050565b60005b838110156120c85780820151818401526020810190506120ad565b838111156120d7576000848401525b50505050565b600060028204905060018216806120f557607f821691505b60208210811415612109576121086121b6565b5b50919050565b600061211a82612091565b91507fffffffffffffffffffffffffffffffffffffffffffffffffffffffffffffffff82141561214d5761214c612158565b5b600182019050919050565b7f4e487b7100000000000000000000000000000000000000000000000000000000600052601160045260246000fd5b7f4e487b7100000000000000000000000000000000000000000000000000000000600052601260045260246000fd5b7f4e487b7100000000000000000000000000000000000000000000000000000000600052602260045260246000fd5b7f4e487b7100000000000000000000000000000000000000000000000000000000600052604160045260246000fd5b6000601f19601f8301169050919050565b61222e81612053565b811461223957600080fd5b50565b61224581612065565b811461225057600080fd5b50565b61225c81612091565b811461226757600080fd5b5056fea2646970667358221220d1861f7af90c242550240baa5f4f82c0191197f617f7a2cb9ac717349cdce07a64736f6c63430008000033",
  "linkReferences": {},
  "deployedLinkReferences": {}
}