{
  "_format": "hh-sol-artifact-1",
  "contractName": "Bank",
  "sourceName": "contracts/Bank.sol",
  "abi": [
    {
      "inputs": [],
      "stateMutability": "nonpayable",
      "type": "constructor"
    },
    {
      "anonymous": false,
      "inputs": [
        {
          "indexed": false,
          "internalType": "string",
          "name": "_Name",
          "type": "string"
        },
        {
          "indexed": false,
          "internalType": "address",
          "name": "owner",
          "type": "address"
        }
      ],
      "name": "showname",
      "type": "event"
    },
    {
      "inputs": [
        {
          "internalType": "uint256",
          "name": "",
          "type": "uint256"
        }
      ],
      "name": "Accounts",
      "outputs": [
        {
          "internalType": "string",
          "name": "name",
          "type": "string"
        },
        {
          "internalType": "uint256",
          "name": "balance",
          "type": "uint256"
        },
        {
          "internalType": "address",
          "name": "owner",
          "type": "address"
        }
      ],
      "stateMutability": "view",
      "type": "function"
    },
    {
      "inputs": [],
      "name": "Usdt",
      "outputs": [
        {
          "internalType": "address",
          "name": "",
          "type": "address"
        }
      ],
      "stateMutability": "view",
      "type": "function"
    },
    {
      "inputs": [],
      "name": "UsdtAddress",
      "outputs": [
        {
          "internalType": "address",
          "name": "",
          "type": "address"
        }
      ],
      "stateMutability": "view",
      "type": "function"
    },
    {
      "inputs": [
        {
          "internalType": "string",
          "name": "s1",
          "type": "string"
        },
        {
          "internalType": "string",
          "name": "s2",
          "type": "string"
        }
      ],
      "name": "compareStringsbyBytes",
      "outputs": [
        {
          "internalType": "bool",
          "name": "",
          "type": "bool"
        }
      ],
      "stateMutability": "pure",
      "type": "function"
    },
    {
      "inputs": [
        {
          "internalType": "string",
          "name": "_accountname",
          "type": "string"
        }
      ],
      "name": "createnewaccount",
      "outputs": [],
      "stateMutability": "nonpayable",
      "type": "function"
    },
    {
      "inputs": [
        {
          "internalType": "string",
          "name": "_accountname",
          "type": "string"
        },
        {
          "internalType": "uint256",
          "name": "_amount",
          "type": "uint256"
        }
      ],
      "name": "depositUsdt",
      "outputs": [],
      "stateMutability": "nonpayable",
      "type": "function"
    },
    {
      "inputs": [
        {
          "internalType": "string",
          "name": "_accountname",
          "type": "string"
        }
      ],
      "name": "getBalance",
      "outputs": [
        {
          "internalType": "uint256",
          "name": "",
          "type": "uint256"
        }
      ],
      "stateMutability": "view",
      "type": "function"
    },
    {
      "inputs": [
        {
          "internalType": "address",
          "name": "_UsdtAddress",
          "type": "address"
        }
      ],
      "name": "getUsdtAddress",
      "outputs": [],
      "stateMutability": "nonpayable",
      "type": "function"
    },
    {
      "inputs": [
        {
          "internalType": "string",
          "name": "_accountfrom",
          "type": "string"
        },
        {
          "internalType": "string",
          "name": "_accountto",
          "type": "string"
        },
        {
          "internalType": "uint256",
          "name": "_amount",
          "type": "uint256"
        }
      ],
      "name": "transferUsdt",
      "outputs": [],
      "stateMutability": "nonpayable",
      "type": "function"
    },
    {
      "inputs": [],
      "name": "userAccounts",
      "outputs": [
        {
          "components": [
            {
              "internalType": "string",
              "name": "name",
              "type": "string"
            },
            {
              "internalType": "uint256",
              "name": "balance",
              "type": "uint256"
            },
            {
              "internalType": "address",
              "name": "owner",
              "type": "address"
            }
          ],
          "internalType": "struct Bank.BankAccont[]",
          "name": "",
          "type": "tuple[]"
        }
      ],
      "stateMutability": "view",
      "type": "function"
    },
    {
      "inputs": [
        {
          "internalType": "uint256",
          "name": "_amount",
          "type": "uint256"
        },
        {
          "internalType": "string",
          "name": "_accountname",
          "type": "string"
        }
      ],
      "name": "withdrawUsdt",
      "outputs": [],
      "stateMutability": "nonpayable",
      "type": "function"
    }
  ],
  "bytecode": "0x608060405234801561001057600080fd5b50336000806101000a81548173ffffffffffffffffffffffffffffffffffffffff021916908373ffffffffffffffffffffffffffffffffffffffff160217905550612038806100606000396000f3fe608060405234801561001057600080fd5b50600436106100a95760003560e01c806397b0176b1161007157806397b0176b14610152578063b6dd59131461016e578063c4932b6a1461018c578063cacf709f146101a8578063e9a734ff146101c4578063fce2ce77146101f4576100a9565b806305204e0e146100ae57806335229ae3146100cc5780633a51d246146100e857806361f62302146101185780636c4414ff14610136575b600080fd5b6100b6610226565b6040516100c39190611afe565b60405180910390f35b6100e660048036038101906100e19190611754565b610632565b005b61010260048036038101906100fd9190611628565b61085a565b60405161010f9190611be9565b60405180910390f35b6101206109bb565b60405161012d9190611a83565b60405180910390f35b610150600480360381019061014b9190611628565b6109e5565b005b61016c600480360381019061016791906116d5565b610af8565b005b610176610f6e565b6040516101839190611a83565b60405180910390f35b6101a660048036038101906101a191906117d1565b610f94565b005b6101c260048036038101906101bd91906115d6565b611248565b005b6101de60048036038101906101d99190611669565b61131a565b6040516101eb9190611b20565b60405180910390f35b61020e600480360381019061020991906117a8565b611373565b60405161021d93929190611b6b565b60405180910390f35b6060600060028054905067ffffffffffffffff81111561026f577f4e487b7100000000000000000000000000000000000000000000000000000000600052604160045260246000fd5b6040519080825280602002602001820160405280156102a857816020015b610295611455565b81526020019060019003908161028d5790505b5090506000805b600280549050811015610506573373ffffffffffffffffffffffffffffffffffffffff166002828154811061030d577f4e487b7100000000000000000000000000000000000000000000000000000000600052603260045260246000fd5b906000526020600020906003020160020160009054906101000a900473ffffffffffffffffffffffffffffffffffffffff1673ffffffffffffffffffffffffffffffffffffffff1614156104f35760028181548110610395577f4e487b7100000000000000000000000000000000000000000000000000000000600052603260045260246000fd5b90600052602060002090600302016040518060600160405290816000820180546103be90611e75565b80601f01602080910402602001604051908101604052809291908181526020018280546103ea90611e75565b80156104375780601f1061040c57610100808354040283529160200191610437565b820191906000526020600020905b81548152906001019060200180831161041a57829003601f168201915b50505050508152602001600182015481526020016002820160009054906101000a900473ffffffffffffffffffffffffffffffffffffffff1673ffffffffffffffffffffffffffffffffffffffff1673ffffffffffffffffffffffffffffffffffffffff16815250508383815181106104d9577f4e487b7100000000000000000000000000000000000000000000000000000000600052603260045260246000fd5b602002602001018190525081806104ef90611ea7565b9250505b80806104fe90611ea7565b9150506102af565b5060008167ffffffffffffffff811115610549577f4e487b7100000000000000000000000000000000000000000000000000000000600052604160045260246000fd5b60405190808252806020026020018201604052801561058257816020015b61056f611455565b8152602001906001900390816105675790505b50905060005b82811015610628578381815181106105c9577f4e487b7100000000000000000000000000000000000000000000000000000000600052603260045260246000fd5b602002602001015182828151811061060a577f4e487b7100000000000000000000000000000000000000000000000000000000600052603260045260246000fd5b6020026020010181905250808061062090611ea7565b915050610588565b5080935050505090565b600080600090505b6002805490508110156107405761072460028281548110610684577f4e487b7100000000000000000000000000000000000000000000000000000000600052603260045260246000fd5b906000526020600020906003020160000180546106a090611e75565b80601f01602080910402602001604051908101604052809291908181526020018280546106cc90611e75565b80156107195780601f106106ee57610100808354040283529160200191610719565b820191906000526020600020905b8154815290600101906020018083116106fc57829003601f168201915b50505050508561131a565b1561072d578091505b808061073890611ea7565b91505061063a565b50816002828154811061077c577f4e487b7100000000000000000000000000000000000000000000000000000000600052603260045260246000fd5b9060005260206000209060030201600101600082825461079c9190611cd6565b92505081905550600160009054906101000a900473ffffffffffffffffffffffffffffffffffffffff1673ffffffffffffffffffffffffffffffffffffffff166323b872dd3330856040518463ffffffff1660e01b815260040161080293929190611a9e565b602060405180830381600087803b15801561081c57600080fd5b505af1158015610830573d6000803e3d6000fd5b505050506040513d601f19601f8201168201806040525081019061085491906115ff565b50505050565b60008060005b6002805490508110156109b15761094a600282815481106108aa577f4e487b7100000000000000000000000000000000000000000000000000000000600052603260045260246000fd5b906000526020600020906003020160000180546108c690611e75565b80601f01602080910402602001604051908101604052809291908181526020018280546108f290611e75565b801561093f5780601f106109145761010080835404028352916020019161093f565b820191906000526020600020905b81548152906001019060200180831161092257829003601f168201915b50505050508561131a565b1561099e5760028181548110610989577f4e487b7100000000000000000000000000000000000000000000000000000000600052603260045260246000fd5b90600052602060002090600302016001015491505b80806109a990611ea7565b915050610860565b5080915050919050565b6000600160009054906101000a900473ffffffffffffffffffffffffffffffffffffffff16905090565b60006040518060600160405280838152602001600081526020013373ffffffffffffffffffffffffffffffffffffffff16815250905060028190806001815401808255809150506001900390600052602060002090600302016000909190919091506000820151816000019080519060200190610a6392919061148c565b506020820151816001015560408201518160020160006101000a81548173ffffffffffffffffffffffffffffffffffffffff021916908373ffffffffffffffffffffffffffffffffffffffff16021790555050507f46c33accdd6d2d0bc5c2e5dfd20ca77dc47d2398f5d94e26bac6b37911d3c8c8816000015133604051610aec929190611b3b565b60405180910390a15050565b60008060005b600280549050811015610cef57610be860028281548110610b48577f4e487b7100000000000000000000000000000000000000000000000000000000600052603260045260246000fd5b90600052602060002090600302016000018054610b6490611e75565b80601f0160208091040260200160405190810160405280929190818152602001828054610b9090611e75565b8015610bdd5780601f10610bb257610100808354040283529160200191610bdd565b820191906000526020600020905b815481529060010190602001808311610bc057829003601f168201915b50505050508761131a565b15610bf557809250610cdc565b610cd260028281548110610c32577f4e487b7100000000000000000000000000000000000000000000000000000000600052603260045260246000fd5b90600052602060002090600302016000018054610c4e90611e75565b80601f0160208091040260200160405190810160405280929190818152602001828054610c7a90611e75565b8015610cc75780601f10610c9c57610100808354040283529160200191610cc7565b820191906000526020600020905b815481529060010190602001808311610caa57829003601f168201915b50505050508661131a565b15610cdb578091505b5b8080610ce790611ea7565b915050610afe565b508260028381548110610d2b577f4e487b7100000000000000000000000000000000000000000000000000000000600052603260045260246000fd5b9060005260206000209060030201600101541015610d7e576040517f08c379a0000000000000000000000000000000000000000000000000000000008152600401610d7590611bc9565b60405180910390fd5b8260028381548110610db9577f4e487b7100000000000000000000000000000000000000000000000000000000600052603260045260246000fd5b90600052602060002090600302016001016000828254610dd99190611db7565b9250508190555060028181548110610e1a577f4e487b7100000000000000000000000000000000000000000000000000000000600052603260045260246000fd5b906000526020600020906003020160020160009054906101000a900473ffffffffffffffffffffffffffffffffffffffff1673ffffffffffffffffffffffffffffffffffffffff1660028381548110610e9c577f4e487b7100000000000000000000000000000000000000000000000000000000600052603260045260246000fd5b906000526020600020906003020160020160009054906101000a900473ffffffffffffffffffffffffffffffffffffffff1673ffffffffffffffffffffffffffffffffffffffff1614610f05576064606384610ef89190611d5d565b610f029190611d2c565b92505b8260028281548110610f40577f4e487b7100000000000000000000000000000000000000000000000000000000600052603260045260246000fd5b90600052602060002090600302016001016000828254610f609190611cd6565b925050819055505050505050565b600160009054906101000a900473ffffffffffffffffffffffffffffffffffffffff1681565b600080600090505b6002805490508110156110a25761108660028281548110610fe6577f4e487b7100000000000000000000000000000000000000000000000000000000600052603260045260246000fd5b9060005260206000209060030201600001805461100290611e75565b80601f016020809104026020016040519081016040528092919081815260200182805461102e90611e75565b801561107b5780601f106110505761010080835404028352916020019161107b565b820191906000526020600020905b81548152906001019060200180831161105e57829003601f168201915b50505050508461131a565b1561108f578091505b808061109a90611ea7565b915050610f9c565b5082600282815481106110de577f4e487b7100000000000000000000000000000000000000000000000000000000600052603260045260246000fd5b9060005260206000209060030201600101541015611131576040517f08c379a000000000000000000000000000000000000000000000000000000000815260040161112890611bc9565b60405180910390fd5b826002828154811061116c577f4e487b7100000000000000000000000000000000000000000000000000000000600052603260045260246000fd5b9060005260206000209060030201600101600082825461118c9190611db7565b92505081905550600160009054906101000a900473ffffffffffffffffffffffffffffffffffffffff1673ffffffffffffffffffffffffffffffffffffffff1663a9059cbb33856040518363ffffffff1660e01b81526004016111f0929190611ad5565b602060405180830381600087803b15801561120a57600080fd5b505af115801561121e573d6000803e3d6000fd5b505050506040513d601f19601f8201168201806040525081019061124291906115ff565b50505050565b60008054906101000a900473ffffffffffffffffffffffffffffffffffffffff1673ffffffffffffffffffffffffffffffffffffffff163373ffffffffffffffffffffffffffffffffffffffff16146112d6576040517f08c379a00000000000000000000000000000000000000000000000000000000081526004016112cd90611ba9565b60405180910390fd5b80600160006101000a81548173ffffffffffffffffffffffffffffffffffffffff021916908373ffffffffffffffffffffffffffffffffffffffff16021790555050565b60008160405160200161132d9190611a6c565b60405160208183030381529060405280519060200120836040516020016113549190611a6c565b6040516020818303038152906040528051906020012014905092915050565b6002818154811061138357600080fd5b90600052602060002090600302016000915090508060000180546113a690611e75565b80601f01602080910402602001604051908101604052809291908181526020018280546113d290611e75565b801561141f5780601f106113f45761010080835404028352916020019161141f565b820191906000526020600020905b81548152906001019060200180831161140257829003601f168201915b5050505050908060010154908060020160009054906101000a900473ffffffffffffffffffffffffffffffffffffffff16905083565b60405180606001604052806060815260200160008152602001600073ffffffffffffffffffffffffffffffffffffffff1681525090565b82805461149890611e75565b90600052602060002090601f0160209004810192826114ba5760008555611501565b82601f106114d357805160ff1916838001178555611501565b82800160010185558215611501579182015b828111156115005782518255916020019190600101906114e5565b5b50905061150e9190611512565b5090565b5b8082111561152b576000816000905550600101611513565b5090565b600061154261153d84611c35565b611c04565b90508281526020810184848401111561155a57600080fd5b611565848285611e33565b509392505050565b60008135905061157c81611fbd565b92915050565b60008151905061159181611fd4565b92915050565b600082601f8301126115a857600080fd5b81356115b884826020860161152f565b91505092915050565b6000813590506115d081611feb565b92915050565b6000602082840312156115e857600080fd5b60006115f68482850161156d565b91505092915050565b60006020828403121561161157600080fd5b600061161f84828501611582565b91505092915050565b60006020828403121561163a57600080fd5b600082013567ffffffffffffffff81111561165457600080fd5b61166084828501611597565b91505092915050565b6000806040838503121561167c57600080fd5b600083013567ffffffffffffffff81111561169657600080fd5b6116a285828601611597565b925050602083013567ffffffffffffffff8111156116bf57600080fd5b6116cb85828601611597565b9150509250929050565b6000806000606084860312156116ea57600080fd5b600084013567ffffffffffffffff81111561170457600080fd5b61171086828701611597565b935050602084013567ffffffffffffffff81111561172d57600080fd5b61173986828701611597565b925050604061174a868287016115c1565b9150509250925092565b6000806040838503121561176757600080fd5b600083013567ffffffffffffffff81111561178157600080fd5b61178d85828601611597565b925050602061179e858286016115c1565b9150509250929050565b6000602082840312156117ba57600080fd5b60006117c8848285016115c1565b91505092915050565b600080604083850312156117e457600080fd5b60006117f2858286016115c1565b925050602083013567ffffffffffffffff81111561180f57600080fd5b61181b85828601611597565b9150509250929050565b600061183183836119fe565b905092915050565b61184281611deb565b82525050565b61185181611deb565b82525050565b600061186282611c75565b61186c8185611c98565b93508360208202850161187e85611c65565b8060005b858110156118ba578484038952815161189b8582611825565b94506118a683611c8b565b925060208a01995050600181019050611882565b50829750879550505050505092915050565b6118d581611dfd565b82525050565b60006118e682611c80565b6118f08185611ca9565b9350611900818560208601611e42565b61190981611fac565b840191505092915050565b600061191f82611c80565b6119298185611cba565b9350611939818560208601611e42565b61194281611fac565b840191505092915050565b600061195882611c80565b6119628185611ccb565b9350611972818560208601611e42565b80840191505092915050565b600061198b600d83611cba565b91507f4e6f205065726d697373696f6e000000000000000000000000000000000000006000830152602082019050919050565b60006119cb601083611cba565b91507f6e6f7420656e6f7567682066756e6473000000000000000000000000000000006000830152602082019050919050565b60006060830160008301518482036000860152611a1b82826118db565b9150506020830151611a306020860182611a4e565b506040830151611a436040860182611839565b508091505092915050565b611a5781611e29565b82525050565b611a6681611e29565b82525050565b6000611a78828461194d565b915081905092915050565b6000602082019050611a986000830184611848565b92915050565b6000606082019050611ab36000830186611848565b611ac06020830185611848565b611acd6040830184611a5d565b949350505050565b6000604082019050611aea6000830185611848565b611af76020830184611a5d565b9392505050565b60006020820190508181036000830152611b188184611857565b905092915050565b6000602082019050611b3560008301846118cc565b92915050565b60006040820190508181036000830152611b558185611914565b9050611b646020830184611848565b9392505050565b60006060820190508181036000830152611b858186611914565b9050611b946020830185611a5d565b611ba16040830184611848565b949350505050565b60006020820190508181036000830152611bc28161197e565b9050919050565b60006020820190508181036000830152611be2816119be565b9050919050565b6000602082019050611bfe6000830184611a5d565b92915050565b6000604051905081810181811067ffffffffffffffff82111715611c2b57611c2a611f7d565b5b8060405250919050565b600067ffffffffffffffff821115611c5057611c4f611f7d565b5b601f19601f8301169050602081019050919050565b6000819050602082019050919050565b600081519050919050565b600081519050919050565b6000602082019050919050565b600082825260208201905092915050565b600082825260208201905092915050565b600082825260208201905092915050565b600081905092915050565b6000611ce182611e29565b9150611cec83611e29565b9250827fffffffffffffffffffffffffffffffffffffffffffffffffffffffffffffffff03821115611d2157611d20611ef0565b5b828201905092915050565b6000611d3782611e29565b9150611d4283611e29565b925082611d5257611d51611f1f565b5b828204905092915050565b6000611d6882611e29565b9150611d7383611e29565b9250817fffffffffffffffffffffffffffffffffffffffffffffffffffffffffffffffff0483118215151615611dac57611dab611ef0565b5b828202905092915050565b6000611dc282611e29565b9150611dcd83611e29565b925082821015611de057611ddf611ef0565b5b828203905092915050565b6000611df682611e09565b9050919050565b60008115159050919050565b600073ffffffffffffffffffffffffffffffffffffffff82169050919050565b6000819050919050565b82818337600083830152505050565b60005b83811015611e60578082015181840152602081019050611e45565b83811115611e6f576000848401525b50505050565b60006002820490506001821680611e8d57607f821691505b60208210811415611ea157611ea0611f4e565b5b50919050565b6000611eb282611e29565b91507fffffffffffffffffffffffffffffffffffffffffffffffffffffffffffffffff821415611ee557611ee4611ef0565b5b600182019050919050565b7f4e487b7100000000000000000000000000000000000000000000000000000000600052601160045260246000fd5b7f4e487b7100000000000000000000000000000000000000000000000000000000600052601260045260246000fd5b7f4e487b7100000000000000000000000000000000000000000000000000000000600052602260045260246000fd5b7f4e487b7100000000000000000000000000000000000000000000000000000000600052604160045260246000fd5b6000601f19601f8301169050919050565b611fc681611deb565b8114611fd157600080fd5b50565b611fdd81611dfd565b8114611fe857600080fd5b50565b611ff481611e29565b8114611fff57600080fd5b5056fea26469706673582212203b6da92eab15a595006c7a8bde96a78985a34213f5c7ff9d6abab2386b1b9cc664736f6c63430008000033",
  "linkReferences": {},
  "deployedLinkReferences": {}
}