{
  "_format": "hh-sol-artifact-1",
  "contractName": "Bank",
  "sourceName": "contracts/Bank.sol",
  "abi": [
    {
      "inputs": [],
      "stateMutability": "nonpayable",
      "type": "constructor"
    },
    {
      "inputs": [
        {
          "internalType": "address",
          "name": "",
          "type": "address"
        },
        {
          "internalType": "string",
          "name": "",
          "type": "string"
        }
      ],
      "name": "AccountDetails",
      "outputs": [
        {
          "internalType": "string",
          "name": "name",
          "type": "string"
        },
        {
          "internalType": "uint256",
          "name": "balance",
          "type": "uint256"
        },
        {
          "internalType": "address",
          "name": "owner",
          "type": "address"
        }
      ],
      "stateMutability": "view",
      "type": "function"
    },
    {
      "inputs": [
        {
          "internalType": "uint256",
          "name": "",
          "type": "uint256"
        }
      ],
      "name": "Accounts",
      "outputs": [
        {
          "internalType": "string",
          "name": "name",
          "type": "string"
        },
        {
          "internalType": "uint256",
          "name": "balance",
          "type": "uint256"
        },
        {
          "internalType": "address",
          "name": "owner",
          "type": "address"
        }
      ],
      "stateMutability": "view",
      "type": "function"
    },
    {
      "inputs": [],
      "name": "Usdt",
      "outputs": [
        {
          "internalType": "address",
          "name": "",
          "type": "address"
        }
      ],
      "stateMutability": "view",
      "type": "function"
    },
    {
      "inputs": [
        {
          "internalType": "address",
          "name": "",
          "type": "address"
        }
      ],
      "name": "accountwallet",
      "outputs": [
        {
          "internalType": "string",
          "name": "name",
          "type": "string"
        },
        {
          "internalType": "uint256",
          "name": "balance",
          "type": "uint256"
        },
        {
          "internalType": "address",
          "name": "owner",
          "type": "address"
        }
      ],
      "stateMutability": "view",
      "type": "function"
    },
    {
      "inputs": [
        {
          "internalType": "string",
          "name": "s1",
          "type": "string"
        },
        {
          "internalType": "string",
          "name": "s2",
          "type": "string"
        }
      ],
      "name": "compareStringsbyBytes",
      "outputs": [
        {
          "internalType": "bool",
          "name": "",
          "type": "bool"
        }
      ],
      "stateMutability": "pure",
      "type": "function"
    },
    {
      "inputs": [
        {
          "internalType": "string",
          "name": "_accountname",
          "type": "string"
        }
      ],
      "name": "createnewaccount",
      "outputs": [],
      "stateMutability": "nonpayable",
      "type": "function"
    },
    {
      "inputs": [
        {
          "internalType": "string",
          "name": "_accountname",
          "type": "string"
        },
        {
          "internalType": "uint256",
          "name": "_amount",
          "type": "uint256"
        }
      ],
      "name": "depositeUsdt",
      "outputs": [],
      "stateMutability": "nonpayable",
      "type": "function"
    },
    {
      "inputs": [
        {
          "internalType": "string",
          "name": "_accountname",
          "type": "string"
        }
      ],
      "name": "getBalance",
      "outputs": [
        {
          "internalType": "uint256",
          "name": "",
          "type": "uint256"
        }
      ],
      "stateMutability": "view",
      "type": "function"
    },
    {
      "inputs": [
        {
          "internalType": "address",
          "name": "UsdtAddress",
          "type": "address"
        }
      ],
      "name": "getUsdtAddress",
      "outputs": [],
      "stateMutability": "nonpayable",
      "type": "function"
    },
    {
      "inputs": [
        {
          "internalType": "string",
          "name": "_accountfrom",
          "type": "string"
        },
        {
          "internalType": "string",
          "name": "_accountto",
          "type": "string"
        },
        {
          "internalType": "uint256",
          "name": "_amount",
          "type": "uint256"
        }
      ],
      "name": "transferUsdt",
      "outputs": [],
      "stateMutability": "nonpayable",
      "type": "function"
    },
    {
      "inputs": [],
      "name": "userAccounts",
      "outputs": [
        {
          "components": [
            {
              "internalType": "string",
              "name": "name",
              "type": "string"
            },
            {
              "internalType": "uint256",
              "name": "balance",
              "type": "uint256"
            },
            {
              "internalType": "address",
              "name": "owner",
              "type": "address"
            }
          ],
          "internalType": "struct Bank.BankAccont[]",
          "name": "",
          "type": "tuple[]"
        }
      ],
      "stateMutability": "view",
      "type": "function"
    },
    {
      "inputs": [],
      "name": "userAccountsdetails",
      "outputs": [
        {
          "components": [
            {
              "internalType": "string",
              "name": "name",
              "type": "string"
            },
            {
              "internalType": "uint256",
              "name": "balance",
              "type": "uint256"
            },
            {
              "internalType": "address",
              "name": "owner",
              "type": "address"
            }
          ],
          "internalType": "struct Bank.BankAccont[]",
          "name": "",
          "type": "tuple[]"
        }
      ],
      "stateMutability": "view",
      "type": "function"
    },
    {
      "inputs": [
        {
          "internalType": "uint256",
          "name": "_amount",
          "type": "uint256"
        },
        {
          "internalType": "string",
          "name": "_accountname",
          "type": "string"
        }
      ],
      "name": "withdrawUsdt",
      "outputs": [],
      "stateMutability": "nonpayable",
      "type": "function"
    }
  ],
  "bytecode": "0x608060405234801561001057600080fd5b50336000806101000a81548173ffffffffffffffffffffffffffffffffffffffff021916908373ffffffffffffffffffffffffffffffffffffffff16021790555061240c806100606000396000f3fe608060405234801561001057600080fd5b50600436106100cf5760003560e01c80639e071b6d1161008c578063c4932b6a11610066578063c4932b6a14610216578063cacf709f14610232578063e9a734ff1461024e578063fce2ce771461027e576100cf565b80639e071b6d146101a8578063a2765e89146101da578063b6dd5913146101f8576100cf565b806305204e0e146100d457806316610229146100f25780633a51d2461461010e578063503454091461013e5780636c4414ff1461017057806397b0176b1461018c575b600080fd5b6100dc6102b0565b6040516100e99190611f02565b60405180910390f35b61010c60048036038101906101079190611b58565b610599565b005b61012860048036038101906101239190611a2c565b6107c1565b6040516101359190611fbd565b60405180910390f35b610158600480360381019061015391906119af565b610922565b60405161016793929190611f3f565b60405180910390f35b61018a60048036038101906101859190611a2c565b610a17565b005b6101a660048036038101906101a19190611ad9565b610aed565b005b6101c260048036038101906101bd9190611986565b610f63565b6040516101d193929190611f3f565b60405180910390f35b6101e2611035565b6040516101ef9190611f02565b60405180910390f35b61020061131e565b60405161020d9190611e87565b60405180910390f35b610230600480360381019061022b9190611bd5565b611344565b005b61024c60048036038101906102479190611986565b6115f8565b005b61026860048036038101906102639190611a6d565b6116ca565b6040516102759190611f24565b60405180910390f35b61029860048036038101906102939190611bac565b611723565b6040516102a793929190611f3f565b60405180910390f35b6060600060028054905067ffffffffffffffff8111156102f9577f4e487b7100000000000000000000000000000000000000000000000000000000600052604160045260246000fd5b60405190808252806020026020018201604052801561033257816020015b61031f611805565b8152602001906001900390816103175790505b5090506000805b600280549050811015610590573373ffffffffffffffffffffffffffffffffffffffff1660028281548110610397577f4e487b7100000000000000000000000000000000000000000000000000000000600052603260045260246000fd5b906000526020600020906003020160020160009054906101000a900473ffffffffffffffffffffffffffffffffffffffff1673ffffffffffffffffffffffffffffffffffffffff16141561057d576002818154811061041f577f4e487b7100000000000000000000000000000000000000000000000000000000600052603260045260246000fd5b906000526020600020906003020160405180606001604052908160008201805461044890612249565b80601f016020809104026020016040519081016040528092919081815260200182805461047490612249565b80156104c15780601f10610496576101008083540402835291602001916104c1565b820191906000526020600020905b8154815290600101906020018083116104a457829003601f168201915b50505050508152602001600182015481526020016002820160009054906101000a900473ffffffffffffffffffffffffffffffffffffffff1673ffffffffffffffffffffffffffffffffffffffff1673ffffffffffffffffffffffffffffffffffffffff1681525050838381518110610563577f4e487b7100000000000000000000000000000000000000000000000000000000600052603260045260246000fd5b602002602001018190525081806105799061227b565b9250505b80806105889061227b565b915050610339565b50819250505090565b600080600090505b6002805490508110156106a75761068b600282815481106105eb577f4e487b7100000000000000000000000000000000000000000000000000000000600052603260045260246000fd5b9060005260206000209060030201600001805461060790612249565b80601f016020809104026020016040519081016040528092919081815260200182805461063390612249565b80156106805780601f1061065557610100808354040283529160200191610680565b820191906000526020600020905b81548152906001019060200180831161066357829003601f168201915b5050505050856116ca565b15610694578091505b808061069f9061227b565b9150506105a1565b5081600282815481106106e3577f4e487b7100000000000000000000000000000000000000000000000000000000600052603260045260246000fd5b9060005260206000209060030201600101600082825461070391906120aa565b92505081905550600160009054906101000a900473ffffffffffffffffffffffffffffffffffffffff1673ffffffffffffffffffffffffffffffffffffffff166323b872dd3330856040518463ffffffff1660e01b815260040161076993929190611ea2565b602060405180830381600087803b15801561078357600080fd5b505af1158015610797573d6000803e3d6000fd5b505050506040513d601f19601f820116820180604052508101906107bb9190611a03565b50505050565b60008060005b600280549050811015610918576108b160028281548110610811577f4e487b7100000000000000000000000000000000000000000000000000000000600052603260045260246000fd5b9060005260206000209060030201600001805461082d90612249565b80601f016020809104026020016040519081016040528092919081815260200182805461085990612249565b80156108a65780601f1061087b576101008083540402835291602001916108a6565b820191906000526020600020905b81548152906001019060200180831161088957829003601f168201915b5050505050856116ca565b1561090557600281815481106108f0577f4e487b7100000000000000000000000000000000000000000000000000000000600052603260045260246000fd5b90600052602060002090600302016001015491505b80806109109061227b565b9150506107c7565b5080915050919050565b6003602052816000526040600020818051602081018201805184825260208301602085012081835280955050505050506000915091505080600001805461096890612249565b80601f016020809104026020016040519081016040528092919081815260200182805461099490612249565b80156109e15780601f106109b6576101008083540402835291602001916109e1565b820191906000526020600020905b8154815290600101906020018083116109c457829003601f168201915b5050505050908060010154908060020160009054906101000a900473ffffffffffffffffffffffffffffffffffffffff16905083565b60006040518060600160405280838152602001600081526020013373ffffffffffffffffffffffffffffffffffffffff16815250905060028190806001815401808255809150506001900390600052602060002090600302016000909190919091506000820151816000019080519060200190610a9592919061183c565b506020820151816001015560408201518160020160006101000a81548173ffffffffffffffffffffffffffffffffffffffff021916908373ffffffffffffffffffffffffffffffffffffffff16021790555050505050565b60008060005b600280549050811015610ce457610bdd60028281548110610b3d577f4e487b7100000000000000000000000000000000000000000000000000000000600052603260045260246000fd5b90600052602060002090600302016000018054610b5990612249565b80601f0160208091040260200160405190810160405280929190818152602001828054610b8590612249565b8015610bd25780601f10610ba757610100808354040283529160200191610bd2565b820191906000526020600020905b815481529060010190602001808311610bb557829003601f168201915b5050505050876116ca565b15610bea57809250610cd1565b610cc760028281548110610c27577f4e487b7100000000000000000000000000000000000000000000000000000000600052603260045260246000fd5b90600052602060002090600302016000018054610c4390612249565b80601f0160208091040260200160405190810160405280929190818152602001828054610c6f90612249565b8015610cbc5780601f10610c9157610100808354040283529160200191610cbc565b820191906000526020600020905b815481529060010190602001808311610c9f57829003601f168201915b5050505050866116ca565b15610cd0578091505b5b8080610cdc9061227b565b915050610af3565b508260028381548110610d20577f4e487b7100000000000000000000000000000000000000000000000000000000600052603260045260246000fd5b9060005260206000209060030201600101541015610d73576040517f08c379a0000000000000000000000000000000000000000000000000000000008152600401610d6a90611f9d565b60405180910390fd5b8260028381548110610dae577f4e487b7100000000000000000000000000000000000000000000000000000000600052603260045260246000fd5b90600052602060002090600302016001016000828254610dce919061218b565b9250508190555060028181548110610e0f577f4e487b7100000000000000000000000000000000000000000000000000000000600052603260045260246000fd5b906000526020600020906003020160020160009054906101000a900473ffffffffffffffffffffffffffffffffffffffff1673ffffffffffffffffffffffffffffffffffffffff1660028381548110610e91577f4e487b7100000000000000000000000000000000000000000000000000000000600052603260045260246000fd5b906000526020600020906003020160020160009054906101000a900473ffffffffffffffffffffffffffffffffffffffff1673ffffffffffffffffffffffffffffffffffffffff1614610efa576064606384610eed9190612131565b610ef79190612100565b92505b8260028281548110610f35577f4e487b7100000000000000000000000000000000000000000000000000000000600052603260045260246000fd5b90600052602060002090600302016001016000828254610f5591906120aa565b925050819055505050505050565b6004602052806000526040600020600091509050806000018054610f8690612249565b80601f0160208091040260200160405190810160405280929190818152602001828054610fb290612249565b8015610fff5780601f10610fd457610100808354040283529160200191610fff565b820191906000526020600020905b815481529060010190602001808311610fe257829003601f168201915b5050505050908060010154908060020160009054906101000a900473ffffffffffffffffffffffffffffffffffffffff16905083565b6060600060028054905067ffffffffffffffff81111561107e577f4e487b7100000000000000000000000000000000000000000000000000000000600052604160045260246000fd5b6040519080825280602002602001820160405280156110b757816020015b6110a4611805565b81526020019060019003908161109c5790505b5090506000805b600280549050811015611315573373ffffffffffffffffffffffffffffffffffffffff166002828154811061111c577f4e487b7100000000000000000000000000000000000000000000000000000000600052603260045260246000fd5b906000526020600020906003020160020160009054906101000a900473ffffffffffffffffffffffffffffffffffffffff1673ffffffffffffffffffffffffffffffffffffffff16141561130257600281815481106111a4577f4e487b7100000000000000000000000000000000000000000000000000000000600052603260045260246000fd5b90600052602060002090600302016040518060600160405290816000820180546111cd90612249565b80601f01602080910402602001604051908101604052809291908181526020018280546111f990612249565b80156112465780601f1061121b57610100808354040283529160200191611246565b820191906000526020600020905b81548152906001019060200180831161122957829003601f168201915b50505050508152602001600182015481526020016002820160009054906101000a900473ffffffffffffffffffffffffffffffffffffffff1673ffffffffffffffffffffffffffffffffffffffff1673ffffffffffffffffffffffffffffffffffffffff16815250508383815181106112e8577f4e487b7100000000000000000000000000000000000000000000000000000000600052603260045260246000fd5b602002602001018190525081806112fe9061227b565b9250505b808061130d9061227b565b9150506110be565b50819250505090565b600160009054906101000a900473ffffffffffffffffffffffffffffffffffffffff1681565b600080600090505b6002805490508110156114525761143660028281548110611396577f4e487b7100000000000000000000000000000000000000000000000000000000600052603260045260246000fd5b906000526020600020906003020160000180546113b290612249565b80601f01602080910402602001604051908101604052809291908181526020018280546113de90612249565b801561142b5780601f106114005761010080835404028352916020019161142b565b820191906000526020600020905b81548152906001019060200180831161140e57829003601f168201915b5050505050846116ca565b1561143f578091505b808061144a9061227b565b91505061134c565b50826002828154811061148e577f4e487b7100000000000000000000000000000000000000000000000000000000600052603260045260246000fd5b90600052602060002090600302016001015410156114e1576040517f08c379a00000000000000000000000000000000000000000000000000000000081526004016114d890611f9d565b60405180910390fd5b826002828154811061151c577f4e487b7100000000000000000000000000000000000000000000000000000000600052603260045260246000fd5b9060005260206000209060030201600101600082825461153c919061218b565b92505081905550600160009054906101000a900473ffffffffffffffffffffffffffffffffffffffff1673ffffffffffffffffffffffffffffffffffffffff1663a9059cbb33856040518363ffffffff1660e01b81526004016115a0929190611ed9565b602060405180830381600087803b1580156115ba57600080fd5b505af11580156115ce573d6000803e3d6000fd5b505050506040513d601f19601f820116820180604052508101906115f29190611a03565b50505050565b60008054906101000a900473ffffffffffffffffffffffffffffffffffffffff1673ffffffffffffffffffffffffffffffffffffffff163373ffffffffffffffffffffffffffffffffffffffff1614611686576040517f08c379a000000000000000000000000000000000000000000000000000000000815260040161167d90611f7d565b60405180910390fd5b80600160006101000a81548173ffffffffffffffffffffffffffffffffffffffff021916908373ffffffffffffffffffffffffffffffffffffffff16021790555050565b6000816040516020016116dd9190611e70565b60405160208183030381529060405280519060200120836040516020016117049190611e70565b6040516020818303038152906040528051906020012014905092915050565b6002818154811061173357600080fd5b906000526020600020906003020160009150905080600001805461175690612249565b80601f016020809104026020016040519081016040528092919081815260200182805461178290612249565b80156117cf5780601f106117a4576101008083540402835291602001916117cf565b820191906000526020600020905b8154815290600101906020018083116117b257829003601f168201915b5050505050908060010154908060020160009054906101000a900473ffffffffffffffffffffffffffffffffffffffff16905083565b60405180606001604052806060815260200160008152602001600073ffffffffffffffffffffffffffffffffffffffff1681525090565b82805461184890612249565b90600052602060002090601f01602090048101928261186a57600085556118b1565b82601f1061188357805160ff19168380011785556118b1565b828001600101855582156118b1579182015b828111156118b0578251825591602001919060010190611895565b5b5090506118be91906118c2565b5090565b5b808211156118db5760008160009055506001016118c3565b5090565b60006118f26118ed84612009565b611fd8565b90508281526020810184848401111561190a57600080fd5b611915848285612207565b509392505050565b60008135905061192c81612391565b92915050565b600081519050611941816123a8565b92915050565b600082601f83011261195857600080fd5b81356119688482602086016118df565b91505092915050565b600081359050611980816123bf565b92915050565b60006020828403121561199857600080fd5b60006119a68482850161191d565b91505092915050565b600080604083850312156119c257600080fd5b60006119d08582860161191d565b925050602083013567ffffffffffffffff8111156119ed57600080fd5b6119f985828601611947565b9150509250929050565b600060208284031215611a1557600080fd5b6000611a2384828501611932565b91505092915050565b600060208284031215611a3e57600080fd5b600082013567ffffffffffffffff811115611a5857600080fd5b611a6484828501611947565b91505092915050565b60008060408385031215611a8057600080fd5b600083013567ffffffffffffffff811115611a9a57600080fd5b611aa685828601611947565b925050602083013567ffffffffffffffff811115611ac357600080fd5b611acf85828601611947565b9150509250929050565b600080600060608486031215611aee57600080fd5b600084013567ffffffffffffffff811115611b0857600080fd5b611b1486828701611947565b935050602084013567ffffffffffffffff811115611b3157600080fd5b611b3d86828701611947565b9250506040611b4e86828701611971565b9150509250925092565b60008060408385031215611b6b57600080fd5b600083013567ffffffffffffffff811115611b8557600080fd5b611b9185828601611947565b9250506020611ba285828601611971565b9150509250929050565b600060208284031215611bbe57600080fd5b6000611bcc84828501611971565b91505092915050565b60008060408385031215611be857600080fd5b6000611bf685828601611971565b925050602083013567ffffffffffffffff811115611c1357600080fd5b611c1f85828601611947565b9150509250929050565b6000611c358383611e02565b905092915050565b611c46816121bf565b82525050565b611c55816121bf565b82525050565b6000611c6682612049565b611c70818561206c565b935083602082028501611c8285612039565b8060005b85811015611cbe5784840389528151611c9f8582611c29565b9450611caa8361205f565b925060208a01995050600181019050611c86565b50829750879550505050505092915050565b611cd9816121d1565b82525050565b6000611cea82612054565b611cf4818561207d565b9350611d04818560208601612216565b611d0d81612380565b840191505092915050565b6000611d2382612054565b611d2d818561208e565b9350611d3d818560208601612216565b611d4681612380565b840191505092915050565b6000611d5c82612054565b611d66818561209f565b9350611d76818560208601612216565b80840191505092915050565b6000611d8f600d8361208e565b91507f4e6f205065726d697373696f6e000000000000000000000000000000000000006000830152602082019050919050565b6000611dcf60108361208e565b91507f6e6f7420656e6f7567682066756e6473000000000000000000000000000000006000830152602082019050919050565b60006060830160008301518482036000860152611e1f8282611cdf565b9150506020830151611e346020860182611e52565b506040830151611e476040860182611c3d565b508091505092915050565b611e5b816121fd565b82525050565b611e6a816121fd565b82525050565b6000611e7c8284611d51565b915081905092915050565b6000602082019050611e9c6000830184611c4c565b92915050565b6000606082019050611eb76000830186611c4c565b611ec46020830185611c4c565b611ed16040830184611e61565b949350505050565b6000604082019050611eee6000830185611c4c565b611efb6020830184611e61565b9392505050565b60006020820190508181036000830152611f1c8184611c5b565b905092915050565b6000602082019050611f396000830184611cd0565b92915050565b60006060820190508181036000830152611f598186611d18565b9050611f686020830185611e61565b611f756040830184611c4c565b949350505050565b60006020820190508181036000830152611f9681611d82565b9050919050565b60006020820190508181036000830152611fb681611dc2565b9050919050565b6000602082019050611fd26000830184611e61565b92915050565b6000604051905081810181811067ffffffffffffffff82111715611fff57611ffe612351565b5b8060405250919050565b600067ffffffffffffffff82111561202457612023612351565b5b601f19601f8301169050602081019050919050565b6000819050602082019050919050565b600081519050919050565b600081519050919050565b6000602082019050919050565b600082825260208201905092915050565b600082825260208201905092915050565b600082825260208201905092915050565b600081905092915050565b60006120b5826121fd565b91506120c0836121fd565b9250827fffffffffffffffffffffffffffffffffffffffffffffffffffffffffffffffff038211156120f5576120f46122c4565b5b828201905092915050565b600061210b826121fd565b9150612116836121fd565b925082612126576121256122f3565b5b828204905092915050565b600061213c826121fd565b9150612147836121fd565b9250817fffffffffffffffffffffffffffffffffffffffffffffffffffffffffffffffff04831182151516156121805761217f6122c4565b5b828202905092915050565b6000612196826121fd565b91506121a1836121fd565b9250828210156121b4576121b36122c4565b5b828203905092915050565b60006121ca826121dd565b9050919050565b60008115159050919050565b600073ffffffffffffffffffffffffffffffffffffffff82169050919050565b6000819050919050565b82818337600083830152505050565b60005b83811015612234578082015181840152602081019050612219565b83811115612243576000848401525b50505050565b6000600282049050600182168061226157607f821691505b6020821081141561227557612274612322565b5b50919050565b6000612286826121fd565b91507fffffffffffffffffffffffffffffffffffffffffffffffffffffffffffffffff8214156122b9576122b86122c4565b5b600182019050919050565b7f4e487b7100000000000000000000000000000000000000000000000000000000600052601160045260246000fd5b7f4e487b7100000000000000000000000000000000000000000000000000000000600052601260045260246000fd5b7f4e487b7100000000000000000000000000000000000000000000000000000000600052602260045260246000fd5b7f4e487b7100000000000000000000000000000000000000000000000000000000600052604160045260246000fd5b6000601f19601f8301169050919050565b61239a816121bf565b81146123a557600080fd5b50565b6123b1816121d1565b81146123bc57600080fd5b50565b6123c8816121fd565b81146123d357600080fd5b5056fea264697066735822122084809e7bbc2542b47ae3131be921438104ef48653e3d8d66c5776e21c74d99de64736f6c63430008000033",
  "linkReferences": {},
  "deployedLinkReferences": {}
}