{
  "_format": "hh-sol-artifact-1",
  "contractName": "Bank",
  "sourceName": "contracts/Bank.sol",
  "abi": [
    {
      "inputs": [],
      "stateMutability": "nonpayable",
      "type": "constructor"
    },
    {
      "anonymous": false,
      "inputs": [
        {
          "indexed": false,
          "internalType": "string",
          "name": "_Name",
          "type": "string"
        },
        {
          "indexed": false,
          "internalType": "address",
          "name": "owner",
          "type": "address"
        }
      ],
      "name": "showname",
      "type": "event"
    },
    {
      "inputs": [
        {
          "internalType": "uint256",
          "name": "",
          "type": "uint256"
        }
      ],
      "name": "Accounts",
      "outputs": [
        {
          "internalType": "string",
          "name": "name",
          "type": "string"
        },
        {
          "internalType": "uint256",
          "name": "balance",
          "type": "uint256"
        },
        {
          "internalType": "address",
          "name": "owner",
          "type": "address"
        }
      ],
      "stateMutability": "view",
      "type": "function"
    },
    {
      "inputs": [],
      "name": "Usdt",
      "outputs": [
        {
          "internalType": "address",
          "name": "",
          "type": "address"
        }
      ],
      "stateMutability": "view",
      "type": "function"
    },
    {
      "inputs": [],
      "name": "UsdtAddress",
      "outputs": [
        {
          "internalType": "address",
          "name": "",
          "type": "address"
        }
      ],
      "stateMutability": "view",
      "type": "function"
    },
    {
      "inputs": [
        {
          "internalType": "string",
          "name": "s1",
          "type": "string"
        },
        {
          "internalType": "string",
          "name": "s2",
          "type": "string"
        }
      ],
      "name": "compareStringsbyBytes",
      "outputs": [
        {
          "internalType": "bool",
          "name": "",
          "type": "bool"
        }
      ],
      "stateMutability": "pure",
      "type": "function"
    },
    {
      "inputs": [
        {
          "internalType": "string",
          "name": "_accountname",
          "type": "string"
        }
      ],
      "name": "createnewaccount",
      "outputs": [],
      "stateMutability": "nonpayable",
      "type": "function"
    },
    {
      "inputs": [
        {
          "internalType": "string",
          "name": "_accountname",
          "type": "string"
        },
        {
          "internalType": "uint256",
          "name": "_amount",
          "type": "uint256"
        }
      ],
      "name": "depositUsdt",
      "outputs": [],
      "stateMutability": "nonpayable",
      "type": "function"
    },
    {
      "inputs": [
        {
          "internalType": "string",
          "name": "_accountname",
          "type": "string"
        }
      ],
      "name": "getBalance",
      "outputs": [
        {
          "internalType": "uint256",
          "name": "",
          "type": "uint256"
        }
      ],
      "stateMutability": "view",
      "type": "function"
    },
    {
      "inputs": [
        {
          "internalType": "address",
          "name": "_UsdtAddress",
          "type": "address"
        }
      ],
      "name": "getUsdtAddress",
      "outputs": [],
      "stateMutability": "nonpayable",
      "type": "function"
    },
    {
      "inputs": [
        {
          "internalType": "string",
          "name": "_from",
          "type": "string"
        },
        {
          "internalType": "string[]",
          "name": "listto",
          "type": "string[]"
        },
        {
          "internalType": "uint256",
          "name": "eachamount",
          "type": "uint256"
        }
      ],
      "name": "listtransfer",
      "outputs": [],
      "stateMutability": "nonpayable",
      "type": "function"
    },
    {
      "inputs": [
        {
          "internalType": "string",
          "name": "_accountfrom",
          "type": "string"
        },
        {
          "internalType": "string",
          "name": "_accountto",
          "type": "string"
        },
        {
          "internalType": "uint256",
          "name": "_amount",
          "type": "uint256"
        }
      ],
      "name": "transferUsdt",
      "outputs": [],
      "stateMutability": "nonpayable",
      "type": "function"
    },
    {
      "inputs": [],
      "name": "userAccounts",
      "outputs": [
        {
          "components": [
            {
              "internalType": "string",
              "name": "name",
              "type": "string"
            },
            {
              "internalType": "uint256",
              "name": "balance",
              "type": "uint256"
            },
            {
              "internalType": "address",
              "name": "owner",
              "type": "address"
            }
          ],
          "internalType": "struct Bank.BankAccont[]",
          "name": "",
          "type": "tuple[]"
        }
      ],
      "stateMutability": "view",
      "type": "function"
    },
    {
      "inputs": [
        {
          "internalType": "uint256",
          "name": "_amount",
          "type": "uint256"
        },
        {
          "internalType": "string",
          "name": "_accountname",
          "type": "string"
        }
      ],
      "name": "withdrawUsdt",
      "outputs": [],
      "stateMutability": "nonpayable",
      "type": "function"
    }
  ],
  "bytecode": "0x608060405234801561001057600080fd5b50336000806101000a81548173ffffffffffffffffffffffffffffffffffffffff021916908373ffffffffffffffffffffffffffffffffffffffff1602179055506122b7806100606000396000f3fe608060405234801561001057600080fd5b50600436106100b45760003560e01c806397b0176b1161007157806397b0176b14610179578063b6dd591314610195578063c4932b6a146101b3578063cacf709f146101cf578063e9a734ff146101eb578063fce2ce771461021b576100b4565b806305204e0e146100b95780632ffa0e16146100d757806335229ae3146100f35780633a51d2461461010f57806361f623021461013f5780636c4414ff1461015d575b600080fd5b6100c161024d565b6040516100ce9190611d31565b60405180910390f35b6100f160048036038101906100ec91906117dd565b610659565b005b61010d60048036038101906101089190611947565b6106c9565b005b6101296004803603810190610124919061179c565b6108f1565b6040516101369190611e3c565b60405180910390f35b610147610a52565b6040516101549190611cb6565b60405180910390f35b6101776004803603810190610172919061179c565b610a7c565b005b610193600480360381019061018e91906118c8565b610b8f565b005b61019d61105b565b6040516101aa9190611cb6565b60405180910390f35b6101cd60048036038101906101c891906119c4565b611081565b005b6101e960048036038101906101e4919061174a565b611335565b005b6102056004803603810190610200919061185c565b611407565b6040516102129190611d53565b60405180910390f35b6102356004803603810190610230919061199b565b611460565b60405161024493929190611d9e565b60405180910390f35b6060600060028054905067ffffffffffffffff811115610296577f4e487b7100000000000000000000000000000000000000000000000000000000600052604160045260246000fd5b6040519080825280602002602001820160405280156102cf57816020015b6102bc611542565b8152602001906001900390816102b45790505b5090506000805b60028054905081101561052d573373ffffffffffffffffffffffffffffffffffffffff1660028281548110610334577f4e487b7100000000000000000000000000000000000000000000000000000000600052603260045260246000fd5b906000526020600020906003020160020160009054906101000a900473ffffffffffffffffffffffffffffffffffffffff1673ffffffffffffffffffffffffffffffffffffffff16141561051a57600281815481106103bc577f4e487b7100000000000000000000000000000000000000000000000000000000600052603260045260246000fd5b90600052602060002090600302016040518060600160405290816000820180546103e5906120f4565b80601f0160208091040260200160405190810160405280929190818152602001828054610411906120f4565b801561045e5780601f106104335761010080835404028352916020019161045e565b820191906000526020600020905b81548152906001019060200180831161044157829003601f168201915b50505050508152602001600182015481526020016002820160009054906101000a900473ffffffffffffffffffffffffffffffffffffffff1673ffffffffffffffffffffffffffffffffffffffff1673ffffffffffffffffffffffffffffffffffffffff1681525050838381518110610500577f4e487b7100000000000000000000000000000000000000000000000000000000600052603260045260246000fd5b6020026020010181905250818061051690612126565b9250505b808061052590612126565b9150506102d6565b5060008167ffffffffffffffff811115610570577f4e487b7100000000000000000000000000000000000000000000000000000000600052604160045260246000fd5b6040519080825280602002602001820160405280156105a957816020015b610596611542565b81526020019060019003908161058e5790505b50905060005b8281101561064f578381815181106105f0577f4e487b7100000000000000000000000000000000000000000000000000000000600052603260045260246000fd5b6020026020010151828281518110610631577f4e487b7100000000000000000000000000000000000000000000000000000000600052603260045260246000fd5b6020026020010181905250808061064790612126565b9150506105af565b5080935050505090565b60005b82518110156106c3576106b0848483815181106106a2577f4e487b7100000000000000000000000000000000000000000000000000000000600052603260045260246000fd5b602002602001015184610b8f565b80806106bb90612126565b91505061065c565b50505050565b600080600090505b6002805490508110156107d7576107bb6002828154811061071b577f4e487b7100000000000000000000000000000000000000000000000000000000600052603260045260246000fd5b90600052602060002090600302016000018054610737906120f4565b80601f0160208091040260200160405190810160405280929190818152602001828054610763906120f4565b80156107b05780601f10610785576101008083540402835291602001916107b0565b820191906000526020600020905b81548152906001019060200180831161079357829003601f168201915b505050505085611407565b156107c4578091505b80806107cf90612126565b9150506106d1565b508160028281548110610813577f4e487b7100000000000000000000000000000000000000000000000000000000600052603260045260246000fd5b906000526020600020906003020160010160008282546108339190611f55565b92505081905550600160009054906101000a900473ffffffffffffffffffffffffffffffffffffffff1673ffffffffffffffffffffffffffffffffffffffff166323b872dd3330856040518463ffffffff1660e01b815260040161089993929190611cd1565b602060405180830381600087803b1580156108b357600080fd5b505af11580156108c7573d6000803e3d6000fd5b505050506040513d601f19601f820116820180604052508101906108eb9190611773565b50505050565b60008060005b600280549050811015610a48576109e160028281548110610941577f4e487b7100000000000000000000000000000000000000000000000000000000600052603260045260246000fd5b9060005260206000209060030201600001805461095d906120f4565b80601f0160208091040260200160405190810160405280929190818152602001828054610989906120f4565b80156109d65780601f106109ab576101008083540402835291602001916109d6565b820191906000526020600020905b8154815290600101906020018083116109b957829003601f168201915b505050505085611407565b15610a355760028181548110610a20577f4e487b7100000000000000000000000000000000000000000000000000000000600052603260045260246000fd5b90600052602060002090600302016001015491505b8080610a4090612126565b9150506108f7565b5080915050919050565b6000600160009054906101000a900473ffffffffffffffffffffffffffffffffffffffff16905090565b60006040518060600160405280838152602001600081526020013373ffffffffffffffffffffffffffffffffffffffff16815250905060028190806001815401808255809150506001900390600052602060002090600302016000909190919091506000820151816000019080519060200190610afa929190611579565b506020820151816001015560408201518160020160006101000a81548173ffffffffffffffffffffffffffffffffffffffff021916908373ffffffffffffffffffffffffffffffffffffffff16021790555050507f46c33accdd6d2d0bc5c2e5dfd20ca77dc47d2398f5d94e26bac6b37911d3c8c8816000015133604051610b83929190611d6e565b60405180910390a15050565b60008067016345785d8a0000905060005b600280549050811015610d9157610c8a60028281548110610bea577f4e487b7100000000000000000000000000000000000000000000000000000000600052603260045260246000fd5b90600052602060002090600302016000018054610c06906120f4565b80601f0160208091040260200160405190810160405280929190818152602001828054610c32906120f4565b8015610c7f5780601f10610c5457610100808354040283529160200191610c7f565b820191906000526020600020905b815481529060010190602001808311610c6257829003601f168201915b505050505087611407565b15610c9757809250610d7e565b610d7460028281548110610cd4577f4e487b7100000000000000000000000000000000000000000000000000000000600052603260045260246000fd5b90600052602060002090600302016000018054610cf0906120f4565b80601f0160208091040260200160405190810160405280929190818152602001828054610d1c906120f4565b8015610d695780601f10610d3e57610100808354040283529160200191610d69565b820191906000526020600020905b815481529060010190602001808311610d4c57829003601f168201915b505050505086611407565b15610d7d578091505b5b8080610d8990612126565b915050610ba0565b5067016345785d8a0000811415610ddd576040517f08c379a0000000000000000000000000000000000000000000000000000000008152600401610dd490611dfc565b60405180910390fd5b8260028381548110610e18577f4e487b7100000000000000000000000000000000000000000000000000000000600052603260045260246000fd5b9060005260206000209060030201600101541015610e6b576040517f08c379a0000000000000000000000000000000000000000000000000000000008152600401610e6290611e1c565b60405180910390fd5b8260028381548110610ea6577f4e487b7100000000000000000000000000000000000000000000000000000000600052603260045260246000fd5b90600052602060002090600302016001016000828254610ec69190612036565b9250508190555060028181548110610f07577f4e487b7100000000000000000000000000000000000000000000000000000000600052603260045260246000fd5b906000526020600020906003020160020160009054906101000a900473ffffffffffffffffffffffffffffffffffffffff1673ffffffffffffffffffffffffffffffffffffffff1660028381548110610f89577f4e487b7100000000000000000000000000000000000000000000000000000000600052603260045260246000fd5b906000526020600020906003020160020160009054906101000a900473ffffffffffffffffffffffffffffffffffffffff1673ffffffffffffffffffffffffffffffffffffffff1614610ff2576064606384610fe59190611fdc565b610fef9190611fab565b92505b826002828154811061102d577f4e487b7100000000000000000000000000000000000000000000000000000000600052603260045260246000fd5b9060005260206000209060030201600101600082825461104d9190611f55565b925050819055505050505050565b600160009054906101000a900473ffffffffffffffffffffffffffffffffffffffff1681565b600080600090505b60028054905081101561118f57611173600282815481106110d3577f4e487b7100000000000000000000000000000000000000000000000000000000600052603260045260246000fd5b906000526020600020906003020160000180546110ef906120f4565b80601f016020809104026020016040519081016040528092919081815260200182805461111b906120f4565b80156111685780601f1061113d57610100808354040283529160200191611168565b820191906000526020600020905b81548152906001019060200180831161114b57829003601f168201915b505050505084611407565b1561117c578091505b808061118790612126565b915050611089565b5082600282815481106111cb577f4e487b7100000000000000000000000000000000000000000000000000000000600052603260045260246000fd5b906000526020600020906003020160010154101561121e576040517f08c379a000000000000000000000000000000000000000000000000000000000815260040161121590611e1c565b60405180910390fd5b8260028281548110611259577f4e487b7100000000000000000000000000000000000000000000000000000000600052603260045260246000fd5b906000526020600020906003020160010160008282546112799190612036565b92505081905550600160009054906101000a900473ffffffffffffffffffffffffffffffffffffffff1673ffffffffffffffffffffffffffffffffffffffff1663a9059cbb33856040518363ffffffff1660e01b81526004016112dd929190611d08565b602060405180830381600087803b1580156112f757600080fd5b505af115801561130b573d6000803e3d6000fd5b505050506040513d601f19601f8201168201806040525081019061132f9190611773565b50505050565b60008054906101000a900473ffffffffffffffffffffffffffffffffffffffff1673ffffffffffffffffffffffffffffffffffffffff163373ffffffffffffffffffffffffffffffffffffffff16146113c3576040517f08c379a00000000000000000000000000000000000000000000000000000000081526004016113ba90611ddc565b60405180910390fd5b80600160006101000a81548173ffffffffffffffffffffffffffffffffffffffff021916908373ffffffffffffffffffffffffffffffffffffffff16021790555050565b60008160405160200161141a9190611c9f565b60405160208183030381529060405280519060200120836040516020016114419190611c9f565b6040516020818303038152906040528051906020012014905092915050565b6002818154811061147057600080fd5b9060005260206000209060030201600091509050806000018054611493906120f4565b80601f01602080910402602001604051908101604052809291908181526020018280546114bf906120f4565b801561150c5780601f106114e15761010080835404028352916020019161150c565b820191906000526020600020905b8154815290600101906020018083116114ef57829003601f168201915b5050505050908060010154908060020160009054906101000a900473ffffffffffffffffffffffffffffffffffffffff16905083565b60405180606001604052806060815260200160008152602001600073ffffffffffffffffffffffffffffffffffffffff1681525090565b828054611585906120f4565b90600052602060002090601f0160209004810192826115a757600085556115ee565b82601f106115c057805160ff19168380011785556115ee565b828001600101855582156115ee579182015b828111156115ed5782518255916020019190600101906115d2565b5b5090506115fb91906115ff565b5090565b5b80821115611618576000816000905550600101611600565b5090565b600061162f61162a84611e88565b611e57565b9050808382526020820190508260005b8581101561166f5781358501611655888261170b565b84526020840193506020830192505060018101905061163f565b5050509392505050565b600061168c61168784611eb4565b611e57565b9050828152602081018484840111156116a457600080fd5b6116af8482856120b2565b509392505050565b6000813590506116c68161223c565b92915050565b600082601f8301126116dd57600080fd5b81356116ed84826020860161161c565b91505092915050565b60008151905061170581612253565b92915050565b600082601f83011261171c57600080fd5b813561172c848260208601611679565b91505092915050565b6000813590506117448161226a565b92915050565b60006020828403121561175c57600080fd5b600061176a848285016116b7565b91505092915050565b60006020828403121561178557600080fd5b6000611793848285016116f6565b91505092915050565b6000602082840312156117ae57600080fd5b600082013567ffffffffffffffff8111156117c857600080fd5b6117d48482850161170b565b91505092915050565b6000806000606084860312156117f257600080fd5b600084013567ffffffffffffffff81111561180c57600080fd5b6118188682870161170b565b935050602084013567ffffffffffffffff81111561183557600080fd5b611841868287016116cc565b925050604061185286828701611735565b9150509250925092565b6000806040838503121561186f57600080fd5b600083013567ffffffffffffffff81111561188957600080fd5b6118958582860161170b565b925050602083013567ffffffffffffffff8111156118b257600080fd5b6118be8582860161170b565b9150509250929050565b6000806000606084860312156118dd57600080fd5b600084013567ffffffffffffffff8111156118f757600080fd5b6119038682870161170b565b935050602084013567ffffffffffffffff81111561192057600080fd5b61192c8682870161170b565b925050604061193d86828701611735565b9150509250925092565b6000806040838503121561195a57600080fd5b600083013567ffffffffffffffff81111561197457600080fd5b6119808582860161170b565b925050602061199185828601611735565b9150509250929050565b6000602082840312156119ad57600080fd5b60006119bb84828501611735565b91505092915050565b600080604083850312156119d757600080fd5b60006119e585828601611735565b925050602083013567ffffffffffffffff811115611a0257600080fd5b611a0e8582860161170b565b9150509250929050565b6000611a248383611c31565b905092915050565b611a358161206a565b82525050565b611a448161206a565b82525050565b6000611a5582611ef4565b611a5f8185611f17565b935083602082028501611a7185611ee4565b8060005b85811015611aad5784840389528151611a8e8582611a18565b9450611a9983611f0a565b925060208a01995050600181019050611a75565b50829750879550505050505092915050565b611ac88161207c565b82525050565b6000611ad982611eff565b611ae38185611f28565b9350611af38185602086016120c1565b611afc8161222b565b840191505092915050565b6000611b1282611eff565b611b1c8185611f39565b9350611b2c8185602086016120c1565b611b358161222b565b840191505092915050565b6000611b4b82611eff565b611b558185611f4a565b9350611b658185602086016120c1565b80840191505092915050565b6000611b7e600d83611f39565b91507f4e6f205065726d697373696f6e000000000000000000000000000000000000006000830152602082019050919050565b6000611bbe601183611f39565b91507f6163636f756e74206e6f742065786973740000000000000000000000000000006000830152602082019050919050565b6000611bfe601083611f39565b91507f6e6f7420656e6f7567682066756e6473000000000000000000000000000000006000830152602082019050919050565b60006060830160008301518482036000860152611c4e8282611ace565b9150506020830151611c636020860182611c81565b506040830151611c766040860182611a2c565b508091505092915050565b611c8a816120a8565b82525050565b611c99816120a8565b82525050565b6000611cab8284611b40565b915081905092915050565b6000602082019050611ccb6000830184611a3b565b92915050565b6000606082019050611ce66000830186611a3b565b611cf36020830185611a3b565b611d006040830184611c90565b949350505050565b6000604082019050611d1d6000830185611a3b565b611d2a6020830184611c90565b9392505050565b60006020820190508181036000830152611d4b8184611a4a565b905092915050565b6000602082019050611d686000830184611abf565b92915050565b60006040820190508181036000830152611d888185611b07565b9050611d976020830184611a3b565b9392505050565b60006060820190508181036000830152611db88186611b07565b9050611dc76020830185611c90565b611dd46040830184611a3b565b949350505050565b60006020820190508181036000830152611df581611b71565b9050919050565b60006020820190508181036000830152611e1581611bb1565b9050919050565b60006020820190508181036000830152611e3581611bf1565b9050919050565b6000602082019050611e516000830184611c90565b92915050565b6000604051905081810181811067ffffffffffffffff82111715611e7e57611e7d6121fc565b5b8060405250919050565b600067ffffffffffffffff821115611ea357611ea26121fc565b5b602082029050602081019050919050565b600067ffffffffffffffff821115611ecf57611ece6121fc565b5b601f19601f8301169050602081019050919050565b6000819050602082019050919050565b600081519050919050565b600081519050919050565b6000602082019050919050565b600082825260208201905092915050565b600082825260208201905092915050565b600082825260208201905092915050565b600081905092915050565b6000611f60826120a8565b9150611f6b836120a8565b9250827fffffffffffffffffffffffffffffffffffffffffffffffffffffffffffffffff03821115611fa057611f9f61216f565b5b828201905092915050565b6000611fb6826120a8565b9150611fc1836120a8565b925082611fd157611fd061219e565b5b828204905092915050565b6000611fe7826120a8565b9150611ff2836120a8565b9250817fffffffffffffffffffffffffffffffffffffffffffffffffffffffffffffffff048311821515161561202b5761202a61216f565b5b828202905092915050565b6000612041826120a8565b915061204c836120a8565b92508282101561205f5761205e61216f565b5b828203905092915050565b600061207582612088565b9050919050565b60008115159050919050565b600073ffffffffffffffffffffffffffffffffffffffff82169050919050565b6000819050919050565b82818337600083830152505050565b60005b838110156120df5780820151818401526020810190506120c4565b838111156120ee576000848401525b50505050565b6000600282049050600182168061210c57607f821691505b602082108114156121205761211f6121cd565b5b50919050565b6000612131826120a8565b91507fffffffffffffffffffffffffffffffffffffffffffffffffffffffffffffffff8214156121645761216361216f565b5b600182019050919050565b7f4e487b7100000000000000000000000000000000000000000000000000000000600052601160045260246000fd5b7f4e487b7100000000000000000000000000000000000000000000000000000000600052601260045260246000fd5b7f4e487b7100000000000000000000000000000000000000000000000000000000600052602260045260246000fd5b7f4e487b7100000000000000000000000000000000000000000000000000000000600052604160045260246000fd5b6000601f19601f8301169050919050565b6122458161206a565b811461225057600080fd5b50565b61225c8161207c565b811461226757600080fd5b50565b612273816120a8565b811461227e57600080fd5b5056fea2646970667358221220c0b7f0784dbdd8f2a107b459a41e664793a1fe86b5fc13d37a4c1f3cb65d490264736f6c63430008000033",
  "linkReferences": {},
  "deployedLinkReferences": {}
}