{
  "_format": "hh-sol-artifact-1",
  "contractName": "Bank",
  "sourceName": "contracts/Bank.sol",
  "abi": [
    {
      "inputs": [],
      "stateMutability": "nonpayable",
      "type": "constructor"
    },
    {
      "anonymous": false,
      "inputs": [
        {
          "indexed": false,
          "internalType": "string",
          "name": "_Name",
          "type": "string"
        },
        {
          "indexed": false,
          "internalType": "address",
          "name": "owner",
          "type": "address"
        }
      ],
      "name": "showname",
      "type": "event"
    },
    {
      "inputs": [
        {
          "internalType": "uint256",
          "name": "",
          "type": "uint256"
        }
      ],
      "name": "Accounts",
      "outputs": [
        {
          "internalType": "string",
          "name": "name",
          "type": "string"
        },
        {
          "internalType": "uint256",
          "name": "balance",
          "type": "uint256"
        },
        {
          "internalType": "address",
          "name": "owner",
          "type": "address"
        }
      ],
      "stateMutability": "view",
      "type": "function"
    },
    {
      "inputs": [],
      "name": "Usdt",
      "outputs": [
        {
          "internalType": "address",
          "name": "",
          "type": "address"
        }
      ],
      "stateMutability": "view",
      "type": "function"
    },
    {
      "inputs": [],
      "name": "UsdtAddress",
      "outputs": [
        {
          "internalType": "address",
          "name": "",
          "type": "address"
        }
      ],
      "stateMutability": "view",
      "type": "function"
    },
    {
      "inputs": [
        {
          "internalType": "string",
          "name": "s1",
          "type": "string"
        },
        {
          "internalType": "string",
          "name": "s2",
          "type": "string"
        }
      ],
      "name": "compareStringsbyBytes",
      "outputs": [
        {
          "internalType": "bool",
          "name": "",
          "type": "bool"
        }
      ],
      "stateMutability": "pure",
      "type": "function"
    },
    {
      "inputs": [
        {
          "internalType": "string",
          "name": "_accountname",
          "type": "string"
        }
      ],
      "name": "createnewaccount",
      "outputs": [],
      "stateMutability": "nonpayable",
      "type": "function"
    },
    {
      "inputs": [
        {
          "internalType": "string",
          "name": "_accountname",
          "type": "string"
        },
        {
          "internalType": "uint256",
          "name": "_amount",
          "type": "uint256"
        }
      ],
      "name": "depositUsdt",
      "outputs": [],
      "stateMutability": "nonpayable",
      "type": "function"
    },
    {
      "inputs": [
        {
          "internalType": "address",
          "name": "_UsdtAddress",
          "type": "address"
        }
      ],
      "name": "getUsdtAddress",
      "outputs": [],
      "stateMutability": "nonpayable",
      "type": "function"
    },
    {
      "inputs": [
        {
          "internalType": "string",
          "name": "_from",
          "type": "string"
        },
        {
          "internalType": "string[]",
          "name": "listto",
          "type": "string[]"
        },
        {
          "internalType": "uint256",
          "name": "eachamount",
          "type": "uint256"
        }
      ],
      "name": "listtransfer",
      "outputs": [],
      "stateMutability": "nonpayable",
      "type": "function"
    },
    {
      "inputs": [
        {
          "internalType": "string",
          "name": "s1",
          "type": "string"
        },
        {
          "internalType": "string",
          "name": "s2",
          "type": "string"
        }
      ],
      "name": "notequalStringsbyBytes",
      "outputs": [
        {
          "internalType": "bool",
          "name": "",
          "type": "bool"
        }
      ],
      "stateMutability": "pure",
      "type": "function"
    },
    {
      "inputs": [
        {
          "internalType": "string",
          "name": "_accountfrom",
          "type": "string"
        },
        {
          "internalType": "string",
          "name": "_accountto",
          "type": "string"
        },
        {
          "internalType": "uint256",
          "name": "_amount",
          "type": "uint256"
        }
      ],
      "name": "transferUsdt",
      "outputs": [],
      "stateMutability": "nonpayable",
      "type": "function"
    },
    {
      "inputs": [],
      "name": "userAccounts",
      "outputs": [
        {
          "components": [
            {
              "internalType": "string",
              "name": "name",
              "type": "string"
            },
            {
              "internalType": "uint256",
              "name": "balance",
              "type": "uint256"
            },
            {
              "internalType": "address",
              "name": "owner",
              "type": "address"
            }
          ],
          "internalType": "struct Bank.BankAccont[]",
          "name": "",
          "type": "tuple[]"
        }
      ],
      "stateMutability": "view",
      "type": "function"
    },
    {
      "inputs": [
        {
          "internalType": "uint256",
          "name": "_amount",
          "type": "uint256"
        },
        {
          "internalType": "string",
          "name": "_accountname",
          "type": "string"
        }
      ],
      "name": "withdrawUsdt",
      "outputs": [],
      "stateMutability": "nonpayable",
      "type": "function"
    }
  ],
  "bytecode": "0x608060405234801561001057600080fd5b50336000806101000a81548173ffffffffffffffffffffffffffffffffffffffff021916908373ffffffffffffffffffffffffffffffffffffffff160217905550612335806100606000396000f3fe608060405234801561001057600080fd5b50600436106100b45760003560e01c806397b0176b1161007157806397b0176b14610179578063b6dd591314610195578063c4932b6a146101b3578063cacf709f146101cf578063e9a734ff146101eb578063fce2ce771461021b576100b4565b806305204e0e146100b95780631d59ec03146100d75780632ffa0e161461010757806335229ae31461012357806361f623021461013f5780636c4414ff1461015d575b600080fd5b6100c161024d565b6040516100ce9190611daa565b60405180910390f35b6100f160048036038101906100ec9190611895565b610659565b6040516100fe9190611dcc565b60405180910390f35b610121600480360381019061011c9190611816565b6106b3565b005b61013d60048036038101906101389190611980565b610723565b005b61014761094b565b6040516101549190611d2f565b60405180910390f35b610177600480360381019061017291906117d5565b610975565b005b610193600480360381019061018e9190611901565b610bc8565b005b61019d611094565b6040516101aa9190611d2f565b60405180910390f35b6101cd60048036038101906101c891906119fd565b6110ba565b005b6101e960048036038101906101e49190611783565b61136e565b005b61020560048036038101906102009190611895565b611440565b6040516102129190611dcc565b60405180910390f35b610235600480360381019061023091906119d4565b611499565b60405161024493929190611e17565b60405180910390f35b6060600060028054905067ffffffffffffffff811115610296577f4e487b7100000000000000000000000000000000000000000000000000000000600052604160045260246000fd5b6040519080825280602002602001820160405280156102cf57816020015b6102bc61157b565b8152602001906001900390816102b45790505b5090506000805b60028054905081101561052d573373ffffffffffffffffffffffffffffffffffffffff1660028281548110610334577f4e487b7100000000000000000000000000000000000000000000000000000000600052603260045260246000fd5b906000526020600020906003020160020160009054906101000a900473ffffffffffffffffffffffffffffffffffffffff1673ffffffffffffffffffffffffffffffffffffffff16141561051a57600281815481106103bc577f4e487b7100000000000000000000000000000000000000000000000000000000600052603260045260246000fd5b90600052602060002090600302016040518060600160405290816000820180546103e590612172565b80601f016020809104026020016040519081016040528092919081815260200182805461041190612172565b801561045e5780601f106104335761010080835404028352916020019161045e565b820191906000526020600020905b81548152906001019060200180831161044157829003601f168201915b50505050508152602001600182015481526020016002820160009054906101000a900473ffffffffffffffffffffffffffffffffffffffff1673ffffffffffffffffffffffffffffffffffffffff1673ffffffffffffffffffffffffffffffffffffffff1681525050838381518110610500577f4e487b7100000000000000000000000000000000000000000000000000000000600052603260045260246000fd5b60200260200101819052508180610516906121a4565b9250505b8080610525906121a4565b9150506102d6565b5060008167ffffffffffffffff811115610570577f4e487b7100000000000000000000000000000000000000000000000000000000600052604160045260246000fd5b6040519080825280602002602001820160405280156105a957816020015b61059661157b565b81526020019060019003908161058e5790505b50905060005b8281101561064f578381815181106105f0577f4e487b7100000000000000000000000000000000000000000000000000000000600052603260045260246000fd5b6020026020010151828281518110610631577f4e487b7100000000000000000000000000000000000000000000000000000000600052603260045260246000fd5b60200260200101819052508080610647906121a4565b9150506105af565b5080935050505090565b60008160405160200161066c9190611d18565b60405160208183030381529060405280519060200120836040516020016106939190611d18565b604051602081830303815290604052805190602001201415905092915050565b60005b825181101561071d5761070a848483815181106106fc577f4e487b7100000000000000000000000000000000000000000000000000000000600052603260045260246000fd5b602002602001015184610bc8565b8080610715906121a4565b9150506106b6565b50505050565b600080600090505b6002805490508110156108315761081560028281548110610775577f4e487b7100000000000000000000000000000000000000000000000000000000600052603260045260246000fd5b9060005260206000209060030201600001805461079190612172565b80601f01602080910402602001604051908101604052809291908181526020018280546107bd90612172565b801561080a5780601f106107df5761010080835404028352916020019161080a565b820191906000526020600020905b8154815290600101906020018083116107ed57829003601f168201915b505050505085611440565b1561081e578091505b8080610829906121a4565b91505061072b565b50816002828154811061086d577f4e487b7100000000000000000000000000000000000000000000000000000000600052603260045260246000fd5b9060005260206000209060030201600101600082825461088d9190611fd3565b92505081905550600160009054906101000a900473ffffffffffffffffffffffffffffffffffffffff1673ffffffffffffffffffffffffffffffffffffffff166323b872dd3330856040518463ffffffff1660e01b81526004016108f393929190611d4a565b602060405180830381600087803b15801561090d57600080fd5b505af1158015610921573d6000803e3d6000fd5b505050506040513d601f19601f8201168201806040525081019061094591906117ac565b50505050565b6000600160009054906101000a900473ffffffffffffffffffffffffffffffffffffffff16905090565b60005b600280549050811015610ab457610a62600282815481106109c2577f4e487b7100000000000000000000000000000000000000000000000000000000600052603260045260246000fd5b906000526020600020906003020160000180546109de90612172565b80601f0160208091040260200160405190810160405280929190818152602001828054610a0a90612172565b8015610a575780601f10610a2c57610100808354040283529160200191610a57565b820191906000526020600020905b815481529060010190602001808311610a3a57829003601f168201915b505050505083610659565b610aa1576040517f08c379a0000000000000000000000000000000000000000000000000000000008152600401610a9890611e75565b60405180910390fd5b8080610aac906121a4565b915050610978565b5060006040518060600160405280838152602001600081526020013373ffffffffffffffffffffffffffffffffffffffff16815250905060028190806001815401808255809150506001900390600052602060002090600302016000909190919091506000820151816000019080519060200190610b339291906115b2565b506020820151816001015560408201518160020160006101000a81548173ffffffffffffffffffffffffffffffffffffffff021916908373ffffffffffffffffffffffffffffffffffffffff16021790555050507f46c33accdd6d2d0bc5c2e5dfd20ca77dc47d2398f5d94e26bac6b37911d3c8c8816000015133604051610bbc929190611de7565b60405180910390a15050565b60008067016345785d8a0000905060005b600280549050811015610dca57610cc360028281548110610c23577f4e487b7100000000000000000000000000000000000000000000000000000000600052603260045260246000fd5b90600052602060002090600302016000018054610c3f90612172565b80601f0160208091040260200160405190810160405280929190818152602001828054610c6b90612172565b8015610cb85780601f10610c8d57610100808354040283529160200191610cb8565b820191906000526020600020905b815481529060010190602001808311610c9b57829003601f168201915b505050505087611440565b15610cd057809250610db7565b610dad60028281548110610d0d577f4e487b7100000000000000000000000000000000000000000000000000000000600052603260045260246000fd5b90600052602060002090600302016000018054610d2990612172565b80601f0160208091040260200160405190810160405280929190818152602001828054610d5590612172565b8015610da25780601f10610d7757610100808354040283529160200191610da2565b820191906000526020600020905b815481529060010190602001808311610d8557829003601f168201915b505050505086611440565b15610db6578091505b5b8080610dc2906121a4565b915050610bd9565b5067016345785d8a0000811415610e16576040517f08c379a0000000000000000000000000000000000000000000000000000000008152600401610e0d90611e95565b60405180910390fd5b8260028381548110610e51577f4e487b7100000000000000000000000000000000000000000000000000000000600052603260045260246000fd5b9060005260206000209060030201600101541015610ea4576040517f08c379a0000000000000000000000000000000000000000000000000000000008152600401610e9b90611eb5565b60405180910390fd5b8260028381548110610edf577f4e487b7100000000000000000000000000000000000000000000000000000000600052603260045260246000fd5b90600052602060002090600302016001016000828254610eff91906120b4565b9250508190555060028181548110610f40577f4e487b7100000000000000000000000000000000000000000000000000000000600052603260045260246000fd5b906000526020600020906003020160020160009054906101000a900473ffffffffffffffffffffffffffffffffffffffff1673ffffffffffffffffffffffffffffffffffffffff1660028381548110610fc2577f4e487b7100000000000000000000000000000000000000000000000000000000600052603260045260246000fd5b906000526020600020906003020160020160009054906101000a900473ffffffffffffffffffffffffffffffffffffffff1673ffffffffffffffffffffffffffffffffffffffff161461102b57606460638461101e919061205a565b6110289190612029565b92505b8260028281548110611066577f4e487b7100000000000000000000000000000000000000000000000000000000600052603260045260246000fd5b906000526020600020906003020160010160008282546110869190611fd3565b925050819055505050505050565b600160009054906101000a900473ffffffffffffffffffffffffffffffffffffffff1681565b600080600090505b6002805490508110156111c8576111ac6002828154811061110c577f4e487b7100000000000000000000000000000000000000000000000000000000600052603260045260246000fd5b9060005260206000209060030201600001805461112890612172565b80601f016020809104026020016040519081016040528092919081815260200182805461115490612172565b80156111a15780601f10611176576101008083540402835291602001916111a1565b820191906000526020600020905b81548152906001019060200180831161118457829003601f168201915b505050505084611440565b156111b5578091505b80806111c0906121a4565b9150506110c2565b508260028281548110611204577f4e487b7100000000000000000000000000000000000000000000000000000000600052603260045260246000fd5b9060005260206000209060030201600101541015611257576040517f08c379a000000000000000000000000000000000000000000000000000000000815260040161124e90611eb5565b60405180910390fd5b8260028281548110611292577f4e487b7100000000000000000000000000000000000000000000000000000000600052603260045260246000fd5b906000526020600020906003020160010160008282546112b291906120b4565b92505081905550600160009054906101000a900473ffffffffffffffffffffffffffffffffffffffff1673ffffffffffffffffffffffffffffffffffffffff1663a9059cbb33856040518363ffffffff1660e01b8152600401611316929190611d81565b602060405180830381600087803b15801561133057600080fd5b505af1158015611344573d6000803e3d6000fd5b505050506040513d601f19601f8201168201806040525081019061136891906117ac565b50505050565b60008054906101000a900473ffffffffffffffffffffffffffffffffffffffff1673ffffffffffffffffffffffffffffffffffffffff163373ffffffffffffffffffffffffffffffffffffffff16146113fc576040517f08c379a00000000000000000000000000000000000000000000000000000000081526004016113f390611e55565b60405180910390fd5b80600160006101000a81548173ffffffffffffffffffffffffffffffffffffffff021916908373ffffffffffffffffffffffffffffffffffffffff16021790555050565b6000816040516020016114539190611d18565b604051602081830303815290604052805190602001208360405160200161147a9190611d18565b6040516020818303038152906040528051906020012014905092915050565b600281815481106114a957600080fd5b90600052602060002090600302016000915090508060000180546114cc90612172565b80601f01602080910402602001604051908101604052809291908181526020018280546114f890612172565b80156115455780601f1061151a57610100808354040283529160200191611545565b820191906000526020600020905b81548152906001019060200180831161152857829003601f168201915b5050505050908060010154908060020160009054906101000a900473ffffffffffffffffffffffffffffffffffffffff16905083565b60405180606001604052806060815260200160008152602001600073ffffffffffffffffffffffffffffffffffffffff1681525090565b8280546115be90612172565b90600052602060002090601f0160209004810192826115e05760008555611627565b82601f106115f957805160ff1916838001178555611627565b82800160010185558215611627579182015b8281111561162657825182559160200191906001019061160b565b5b5090506116349190611638565b5090565b5b80821115611651576000816000905550600101611639565b5090565b600061166861166384611f06565b611ed5565b9050808382526020820190508260005b858110156116a8578135850161168e8882611744565b845260208401935060208301925050600181019050611678565b5050509392505050565b60006116c56116c084611f32565b611ed5565b9050828152602081018484840111156116dd57600080fd5b6116e8848285612130565b509392505050565b6000813590506116ff816122ba565b92915050565b600082601f83011261171657600080fd5b8135611726848260208601611655565b91505092915050565b60008151905061173e816122d1565b92915050565b600082601f83011261175557600080fd5b81356117658482602086016116b2565b91505092915050565b60008135905061177d816122e8565b92915050565b60006020828403121561179557600080fd5b60006117a3848285016116f0565b91505092915050565b6000602082840312156117be57600080fd5b60006117cc8482850161172f565b91505092915050565b6000602082840312156117e757600080fd5b600082013567ffffffffffffffff81111561180157600080fd5b61180d84828501611744565b91505092915050565b60008060006060848603121561182b57600080fd5b600084013567ffffffffffffffff81111561184557600080fd5b61185186828701611744565b935050602084013567ffffffffffffffff81111561186e57600080fd5b61187a86828701611705565b925050604061188b8682870161176e565b9150509250925092565b600080604083850312156118a857600080fd5b600083013567ffffffffffffffff8111156118c257600080fd5b6118ce85828601611744565b925050602083013567ffffffffffffffff8111156118eb57600080fd5b6118f785828601611744565b9150509250929050565b60008060006060848603121561191657600080fd5b600084013567ffffffffffffffff81111561193057600080fd5b61193c86828701611744565b935050602084013567ffffffffffffffff81111561195957600080fd5b61196586828701611744565b92505060406119768682870161176e565b9150509250925092565b6000806040838503121561199357600080fd5b600083013567ffffffffffffffff8111156119ad57600080fd5b6119b985828601611744565b92505060206119ca8582860161176e565b9150509250929050565b6000602082840312156119e657600080fd5b60006119f48482850161176e565b91505092915050565b60008060408385031215611a1057600080fd5b6000611a1e8582860161176e565b925050602083013567ffffffffffffffff811115611a3b57600080fd5b611a4785828601611744565b9150509250929050565b6000611a5d8383611caa565b905092915050565b611a6e816120e8565b82525050565b611a7d816120e8565b82525050565b6000611a8e82611f72565b611a988185611f95565b935083602082028501611aaa85611f62565b8060005b85811015611ae65784840389528151611ac78582611a51565b9450611ad283611f88565b925060208a01995050600181019050611aae565b50829750879550505050505092915050565b611b01816120fa565b82525050565b6000611b1282611f7d565b611b1c8185611fa6565b9350611b2c81856020860161213f565b611b35816122a9565b840191505092915050565b6000611b4b82611f7d565b611b558185611fb7565b9350611b6581856020860161213f565b611b6e816122a9565b840191505092915050565b6000611b8482611f7d565b611b8e8185611fc8565b9350611b9e81856020860161213f565b80840191505092915050565b6000611bb7600d83611fb7565b91507f4e6f205065726d697373696f6e000000000000000000000000000000000000006000830152602082019050919050565b6000611bf7601a83611fb7565b91507f6163636f756e74206e616d6520686164206265656e20757365640000000000006000830152602082019050919050565b6000611c37601183611fb7565b91507f6163636f756e74206e6f742065786973740000000000000000000000000000006000830152602082019050919050565b6000611c77601083611fb7565b91507f6e6f7420656e6f7567682066756e6473000000000000000000000000000000006000830152602082019050919050565b60006060830160008301518482036000860152611cc78282611b07565b9150506020830151611cdc6020860182611cfa565b506040830151611cef6040860182611a65565b508091505092915050565b611d0381612126565b82525050565b611d1281612126565b82525050565b6000611d248284611b79565b915081905092915050565b6000602082019050611d446000830184611a74565b92915050565b6000606082019050611d5f6000830186611a74565b611d6c6020830185611a74565b611d796040830184611d09565b949350505050565b6000604082019050611d966000830185611a74565b611da36020830184611d09565b9392505050565b60006020820190508181036000830152611dc48184611a83565b905092915050565b6000602082019050611de16000830184611af8565b92915050565b60006040820190508181036000830152611e018185611b40565b9050611e106020830184611a74565b9392505050565b60006060820190508181036000830152611e318186611b40565b9050611e406020830185611d09565b611e4d6040830184611a74565b949350505050565b60006020820190508181036000830152611e6e81611baa565b9050919050565b60006020820190508181036000830152611e8e81611bea565b9050919050565b60006020820190508181036000830152611eae81611c2a565b9050919050565b60006020820190508181036000830152611ece81611c6a565b9050919050565b6000604051905081810181811067ffffffffffffffff82111715611efc57611efb61227a565b5b8060405250919050565b600067ffffffffffffffff821115611f2157611f2061227a565b5b602082029050602081019050919050565b600067ffffffffffffffff821115611f4d57611f4c61227a565b5b601f19601f8301169050602081019050919050565b6000819050602082019050919050565b600081519050919050565b600081519050919050565b6000602082019050919050565b600082825260208201905092915050565b600082825260208201905092915050565b600082825260208201905092915050565b600081905092915050565b6000611fde82612126565b9150611fe983612126565b9250827fffffffffffffffffffffffffffffffffffffffffffffffffffffffffffffffff0382111561201e5761201d6121ed565b5b828201905092915050565b600061203482612126565b915061203f83612126565b92508261204f5761204e61221c565b5b828204905092915050565b600061206582612126565b915061207083612126565b9250817fffffffffffffffffffffffffffffffffffffffffffffffffffffffffffffffff04831182151516156120a9576120a86121ed565b5b828202905092915050565b60006120bf82612126565b91506120ca83612126565b9250828210156120dd576120dc6121ed565b5b828203905092915050565b60006120f382612106565b9050919050565b60008115159050919050565b600073ffffffffffffffffffffffffffffffffffffffff82169050919050565b6000819050919050565b82818337600083830152505050565b60005b8381101561215d578082015181840152602081019050612142565b8381111561216c576000848401525b50505050565b6000600282049050600182168061218a57607f821691505b6020821081141561219e5761219d61224b565b5b50919050565b60006121af82612126565b91507fffffffffffffffffffffffffffffffffffffffffffffffffffffffffffffffff8214156121e2576121e16121ed565b5b600182019050919050565b7f4e487b7100000000000000000000000000000000000000000000000000000000600052601160045260246000fd5b7f4e487b7100000000000000000000000000000000000000000000000000000000600052601260045260246000fd5b7f4e487b7100000000000000000000000000000000000000000000000000000000600052602260045260246000fd5b7f4e487b7100000000000000000000000000000000000000000000000000000000600052604160045260246000fd5b6000601f19601f8301169050919050565b6122c3816120e8565b81146122ce57600080fd5b50565b6122da816120fa565b81146122e557600080fd5b50565b6122f181612126565b81146122fc57600080fd5b5056fea26469706673582212209a9658a0328e0b4dcd01c2c501897812feff42597304a5456b9be2892a11aa6064736f6c63430008000033",
  "linkReferences": {},
  "deployedLinkReferences": {}
}